:020000040800F2
:100000000050002015310008B50B0008B70B0008A0
:10001000B90B0008BB0B0008BD0B00080000000076
:10002000000000000000000000000000BF0B0008FE
:10003000C10B000800000000C30B0008C50B00083E
:100040005D3100085D3100085D3100085D31000858
:100050005D3100085D3100085D3100085D31000848
:100060005D3100085D3100085D3100085D31000838
:100070005D3100085D3100085D3100085D31000828
:100080005D3100085D3100085D3100085D31000818
:100090005D3100085D3100085D3100085D31000808
:1000A0005D3100085D3100085D3100085D310008F8
:1000B0005D3100085D3100085D310008CD0B00089E
:1000C000DD0B00085D3100085D3100085D3100087E
:1000D0005D310008ED0B00085D3100085D3100085E
:1000E0005D3100085D3100085D310008000000004E
:1000F0000000000000000000000000000000000000
:0C01000000000000000000005FF808F1A3
:10010C0070B5860747D0541E002A3ED00346CAB2AB
:10011C0001E0013C39D303F8012B9D07F9D1032CE5
:10012C002CD9CDB205EB05250F2C1A4605EB054550
:10013C0034D9A4F1100C2CF00F0603F1100EB644B8
:10014C004FEA1C1C156055609560D56010327245E5
:10015C00F8D10CF1010214F00C0F03EB021204F0B5
:10016C000F0C13D0ACF1040323F00303043313443A
:10017C0042F8045B9A42FBD10CF003042CB1C9B2D7
:10018C001C4403F8011B9C42FBD170BD6446134612
:10019C00002CF4D1F9E703461446C0E7A446E1E786
:1001AC0070B50F4B0F4DAB42A3EB050607D00024E7
:1001BC00B61055F8043B01349847A642F9D802F022
:1001CC00C9FF094D094B5E1BAB424FEAA60606D090
:1001DC00002455F8043B01349847A642F9D870BD69
:1001EC00AC350008AC350008AC350008B03500085B
:1001FC0010B5054C237833B9044B13B10448AFF355
:10020C0000800123237010BD1800002000000000A6
:10021C006031000808B5034B1BB103490348AFF329
:10022C00008008BD000000001C00002060310008A8
:10023C00BFF34F8F0549CA6802F4E062044B1343C5
:10024C00CB60BFF34F8F00BFFDE700BF00ED00E0B8
:10025C000400FA0510B40378F23B072B08D8DFE84A
:10026C0003F02104191D2B2F3337634B01221A7015
:10027C000023624A1370624A1370624A13605E4B29
:10028C001B78013B072B48D8DFE803F07B2A654F2E
:10029C00474790A6584B03221A70E9E7564B0422A5
:1002AC001A70E5E7544B02221A70574B01221A7050
:1002BC00564B03221A70DBE7544B05221A70D7E712
:1002CC00524B06221A70D3E74B4B07221A70CFE71A
:1002DC00494B08221A70CBE723780533484A137030
:1002EC00464A11784B1C10F803C0494C04F801C065
:1002FC00DBB21370012BEFD0414A12789342EFD14D
:10030C000323424A1370404A1370424B01221A7065
:10031C0000233A4A1370384A137010BC70475A1CA9
:10032C00845C3B49CC54354B1A70344B1B780D2BE9
:10033C00F5D1364B04221A700023304A1370354A1B
:10034C00012111702C4A1370E7E75A1C845C304968
:10035C00CC542A4B1A70294B1B78092BF5D12B4BFB
:10036C0002221A700023254A13702A4A01211170A7
:10037C00214A1370D1E75A1C845C2549CC541F4B7D
:10038C001A701E4B1B78092BF5D101221F4B1A70CA
:10039C0000231A490B701F490A70174A1370BCE7E7
:1003AC005A1C845C1A49CC54144B1A70134B1B788E
:1003BC00052BF5D1154B07221A7000230F4A137029
:1003CC00144A012111700C4A1370A6E75A1C845C64
:1003DC000F49CC54094B1A70084B1B78052BF5D1DF
:1003EC000A4B08221A700023044A1370094A01218F
:1003FC001170014A137090E7E8010020A100002061
:10040C00A00000209000002000000020E901002046
:10041C00A4000020940000202DE9F04389B00024B2
:10042C000494059406940794364B9A6942F0100292
:10043C009A619A6902F010020092009A9A6942F04D
:10044C0020029A619A6902F020020192019A9A693B
:10045C0042F004029A619A6902F004020292029A32
:10046C009A6942F008029A619B6903F008030393AE
:10047C00039BDFF8949022464FF40051484601F05C
:10048C0087F8DFF8888022468021404601F080F80A
:10049C001F4D22464FF40071284601F079F84FF4B5
:1004AC00005304930127059706940226079604A986
:1004BC00484600F05FFF8023049305970694079647
:1004CC0004A9404600F056FF04970594069604A92B
:1004DC00284600F04FFF4FF4807304930594069464
:1004EC0004A9284600F046FF4FF4007304930597C7
:1004FC000694079604A9284600F03CFF09B0BDE815
:10050C00F08300BF001002400010014000080140C1
:10051C00000C014070B505460E4604460DE001F096
:10052C006FF9204601F014FA064A136923F002030E
:10053C00136101F07FF904F58064AB19A342EED886
:10054C0070BD00BF00200240F8B5494B1B78012B51
:10055C0003D1484B33221A70F8BD474B1B78013B33
:10056C004648DAB2C15C00F0ADFA00287CD0434BAF
:10057C00DC785A7842490D6845EA02259B781D4380
:10058C00042C13D0002C68D115F0070223D03B4962
:10059C000B781344DBB20B700433D11C994210DA84
:1005AC00981A3649085CC854013BF6E7334B1A7964
:1005BC005B791B0443EA02630B602E4B35221A70E5
:1005CC00CAE700239A4205DD191D2C48FF26465424
:1005DC000133F7E7AD1A294B1B78DA1D02F4FC72D4
:1005EC00934208DA27490B440A44934203D2FF2171
:1005FC0003F8011BF9E7214B1E780336B6081CE003
:10060C0001F0FEF81D4B53F8272000232946022049
:10061C0001F04EF91C4A136923F00103136101F038
:10062C0009F90435194B1B782BB1194B1B6803F5D1
:10063C008063AB420DD90134E4B2B44209D2671CD9
:10064C00124B1B78002BDBD0114B1B68AB42E8D84C
:10065C00D6E7084B35221A707EE7012C7FF47CAF6D
:10066C00044B35221A7077E7024B34221A7073E769
:10067C0000000020A4010020A0000020A400002005
:10068C009C000020A80000200020024095000020C3
:10069C009800002038B504460548FFF7DBFD054DF2
:1006AC006562054B186801F0BBFC11232B7038BD3B
:1006BC00A8010020A40100204000002038B511B191
:1006CC00012908D038BD082304220C490C480068C5
:1006DC0001F016FCF6E70B4C40252A46002120467B
:1006EC00FFF70EFD01232A4621460548006801F05C
:1006FC004FFC054A137801331370E3E7A401002083
:10070C0040000020A801002044000020024A136889
:10071C0001331360704700BF3400002072B6FEE74F
:10072C0000B591B02822002106A8FFF7E9FC0023B0
:10073C0001930293039304930593012206924FF4C1
:10074C00803307930A9202220D920E934FF4E0131A
:10075C000F9306A800F010FB80B90F230193022120
:10076C000291002303934FF480620492059301A835
:10077C0000F034FD20B911B05DF804FBFFF7CEFF9B
:10078C00FFF7CCFF70B582B000F0BCFAFFF7C8FFE2
:10079C00FFF742FEA34B00245C7008221A70196804
:1007AC00A14B187800F0C6F9A04D286001F038FC78
:1007BC00286802F043F927E09D480822017A00F0EE
:1007CC0081F90246002835D19A4B34221A709A4B83
:1007DC0000221A70994B1C780CB100221A70964B9F
:1007EC001B78002B00F0628195490A6801320A607F
:1007FC00934A1168934A914206D92BB1904B00222F
:10080C001A60914B01221A70631E072BE2D801A2C9
:10081C0052F823F0C5070008C5070008A90800080E
:10082C00B5080008370900084D09000851090008EF
:10083C00510900087E4B19785878000440EA016091
:10084C00997840EA0120D97808431D79597909042F
:10085C0041EA05619D7941EA0521DB791943012CB7
:10086C000CD0022CB3D18B08002199420DD250F838
:10087C002140B4F1FF3F07D10131F6E7FFF74AFE03
:10088C006C4B38221A70A2E700221AB1694B322243
:10089C001A709CE7674B31221A7098E7FFF754FEE9
:1008AC00654B00221A7095E761480C22017B00F021
:1008BC0009F918B95F4B34221A708BE75C4B197825
:1008CC005A78120442EA0162997842EA0122D978F4
:1008DC000A4318795979090441EA0061987941EA87
:1008EC000021D8791D7A5C7A240444EA05649D7A47
:1008FC0044EA0524DB7A1C43544B1A600143002064
:10090C0000F002F9844209D04A4B37221A70504B3E
:10091C0001221A70484B00221A705BE7454B3622B5
:10092C001A704B4B00221A70F4E7FFF781FCD900C8
:10093C00484ACA403F490A700133032BF7DD49E7A7
:10094C000023FAE73A480422017900F0BBF8064686
:10095C0018B9384B34221A703CE7354A1178537861
:10096C001B0443EA0163917843EA0123D2781343D1
:10097C00072C08D0082C4AD1374A934249D02D4B2A
:10098C0064221A7026E7354A93423ED0294B6222E4
:10099C001A701FE7072C15D0002632464FF0FF3394
:1009AC0000930193072C5DD0082C7FF413AF002E1D
:1009BC0078D0B5F1FF3F75D0274B01931D4B6322C7
:1009CC001A7057E0D30003F1006505F57C45002251
:1009DC00E4E701337C2B1EDCDA1C214951F8325040
:1009EC00B5F1FF3FD6D01D4A9542F2D1DA1CD200A8
:1009FC0002F1006202F57C425568B5F1FF3FE8D187
:100A0C00072C0CD015460022C8E70023E2E7002390
:100A1C00E0E70023DEE700224FF0FF35BEE7324669
:100A2C00BCE700BF3C000020380000204000002044
:100A3C00A4000020A401002094000020E901002063
:100A4C00900000207F841E000000002098000020F1
:100A5C0095000020302E3141ACB8E218239BAE84B7
:100A6C0000FC0008B2B99D4218D0124B0093124BF7
:100A7C0061221A7000F0C4FE6A46D317294603207F
:100A8C0000F016FF0D4A136923F00103136100F007
:100A9C00D1FE9FE6084B61221A709BE6064B622240
:100AAC001A7097E6044B64221A7093E6044A0021EC
:100ABC0011609DE6239BAE84A4010020002002401F
:100ACC009000002000239C46934212D200B510F8EF
:100ADC0003E0F4440133DBB29342F8D3CCF1000CC5
:100AEC005FFA8CFC8C4502D000205DF804FB0120E1
:100AFC00FBE7C3F1000C5FFA8CFC8C4501D00020A5
:100B0C007047012070470000C04379B110B412F84F
:100B1C00013BC4B26340064C54F8233083EA1020E6
:100B2C0001390029F3D1C04310BC7047C043704752
:100B3C007831000830B583B00446ADF80410144B7E
:100B4C0053F82010134A542300FB03F3D018D15050
:100B5C009DF80520104B53F822304360002383602E
:100B6C004FF4804202614361C36180220262102211
:100B7C00C2608361054601F0E5F830B99DF80420A8
:100B8C00064B1A55284603B030BD0025FAE700BFC6
:100B9C0004000020F001002078350008EC01002052
:100BAC007047704770477047FEE7FEE7FEE7FEE7C9
:100BBC00FEE770477047704708B500F0B5F808BD00
:100BCC0008B5024B186801F039FF08BD4000002041
:100BDC0008B5024B186802F001F808BD400000206F
:100BEC0008B5024802F04CF908BD00BF48000020CF
:100BFC0082B00E4B9A6942F001029A619A6902F036
:100C0C0001020092009ADA6942F08052DA61DB69E3
:100C1C0003F080530193019B054A536823F0E06372
:100C2C0043F00073536002B0704700BF00100240E5
:100C3C000000014010B586B0002302930393049387
:100C4C0005930268194B9A4201D006B010BD184C9E
:100C5C00A36943F00803A361A36903F0080300939D
:100C6C00009BC0230293122303930323059302A931
:100C7C00104800F07FFBE36943F40013E361E36980
:100C8C0003F400130193019B002211461F2000F076
:100C9C003FFD1F2000F04CFD00221146202000F0EB
:100CAC0037FD202000F044FDCFE700BF005400408A
:100CBC0000100240000C014010B504460E4B1A788F
:100CCC004FF47A73B3FBF2F30C4A1068B0FBF3F0F9
:100CDC0000F03CFD68B90F2C01D901200AE000227C
:100CEC0021464FF0FF3000F013FD054B1C60002037
:100CFC0000E0012010BD00BF0C00002014000020FB
:100D0C001000002008B5074A136843F01003136065
:100D1C00032000F0EBFC0F20FFF7CEFFFFF768FF7E
:100D2C00002008BD00200240034A1168034B1B78C9
:100D3C000B441360704700BF980200200C00002089
:100D4C00014B1868704700BF9802002082B0084B16
:100D5C001B68084AA2FB03235B0A00FB03F3019305
:100D6C0000BF019B5A1E0192002BF9D102B07047B3
:100D7C0014000020D34D6210002800F0F18170B5F2
:100D8C0082B00446036813F0010F2CD0994B5B68BA
:100D9C0003F00C03042B1DD0964B5B6803F00C0383
:100DAC00082B12D06368B3F5803F41D0002B55D18E
:100DBC0003F1804303F504331A6822F480321A607D
:100DCC001A6822F480221A6037E08A4B5B6813F4AD
:100DDC00803FE7D0874B1B6813F4003F03D0636858
:100DEC00002B00F0BF81236813F0020F75D0814BEC
:100DFC005B6813F00C0F5FD07E4B5B6803F00C0349
:100E0C00082B54D02369002B00F08A807A4B0122E6
:100E1C001A60FFF795FF0546764B1B6813F0020F1F
:100E2C0075D1FFF78DFF401B0228F5D903209EE1F9
:100E3C00704A136843F480331360636843B3FFF75D
:100E4C007FFF05466B4B1B6813F4003FCBD1FFF7BC
:100E5C0077FF401B6428F5D9032088E1B3F5A02F58
:100E6C0009D0644B1A6822F480321A601A6822F492
:100E7C0080221A60E1E703F18043A3F53C331A6842
:100E8C0042F480221A601A6842F480321A60D4E765
:100E9C00FFF756FF0546574B1B6813F4003FA2D0D3
:100EAC00FFF74EFF401B6428F5D903205FE1514B3F
:100EBC005B6813F4803FA5D14E4B1B6813F0020FF7
:100ECC0003D02369012B40F04F814A4A136823F069
:100EDC00F803616943EAC1031360236813F0080F38
:100EEC0033D0A369002B5CD0434B0122C3F8802480
:100EFC00FFF726FF05463F4B5B6A13F0020F21D12B
:100F0C00FFF71EFF401B0228F5D903202FE1394AB9
:100F1C00136823F0F803616943EAC1031360DCE74B
:100F2C00354B00221A60FFF70BFF0546314B1B684F
:100F3C0013F0020FD1D0FFF703FF401B0228F5D9A5
:100F4C00032014E10120FFF701FF236813F0040FC5
:100F5C0000F09680274BDB6913F0805F34D1254B72
:100F6C00DA6942F08052DA61DB6903F08053019355
:100F7C00019B0125214B1B6813F4807F26D0E3686D
:100F8C00012B3DD0002B53D103F1804303F50433E7
:100F9C001A6A22F001021A621A6A22F004021A6218
:100FAC0033E0154B0022C3F88024FFF7C9FE054639
:100FBC00104B5B6A13F0020FC7D0FFF7C1FE401B4A
:100FCC000228F5D90320D2E00025D3E70B4A136899
:100FDC0043F480731360FFF7B3FE0646074B1B68A0
:100FEC0013F4807FCBD1FFF7ABFE801B6428F5D9BF
:100FFC000320BCE0001002400000424200700040A0
:10100C005F4A136A43F001031362E36833B3FFF7DB
:10101C0097FE06465A4B1B6A13F0020F2FD1FFF7AF
:10102C008FFE801B41F288339842F3D903209EE057
:10103C00052B09D0524B1A6A22F001021A621A6A65
:10104C0022F004021A62E0E74D4B1A6A42F00402E5
:10105C001A621A6A42F001021A62D6E7FFF770FEB2
:10106C000646474B1B6A13F0020F08D0FFF768FEC9
:10107C00801B41F288339842F3D9032077E0E5B91D
:10108C00E369002B72D03E4A526802F00C02082A27
:10109C0056D0022B17D03B4B00221A66FFF750FE9E
:1010AC000446374B1B6813F0007F47D0FFF748FE10
:1010BC00001B0228F5D9032059E0314AD36923F0EB
:1010CC008053D361DCE72F4B00221A66FFF738FE02
:1010DC0005462B4B1B6813F0007F06D0FFF730FE44
:1010EC00401B0228F5D9032041E0236AB3F5803F69
:1010FC001AD023494B6823F47413226A606A0243A2
:10110C0013434B601F4B01221A66FFF719FE04466E
:10111C001B4B1B6813F0007F0ED1FFF711FE001B59
:10112C000228F5D9032022E0154A536823F4003332
:10113C00A1680B435360DCE7002018E0002016E0A8
:10114C00012B16D00E4B5B6803F48031226A91425E
:10115C0011D103F47013626A93420ED1002006E0A1
:10116C0001207047012002E0012000E0002002B0C5
:10117C0070BD0120FBE70120F9E70120F7E700BF74
:10118C0000100240000042420F4B5B6803F00C025F
:10119C00082A01D00D487047C3F383420C49885C80
:1011AC0013F4803F0BD0084B5B68C3F34043094AF0
:1011BC00D35C064A02FB00F0B0FBF3F07047064B21
:1011CC0003FB00F0704700BF0010024000127A00D1
:1011DC00843500088035000800093D00002800F027
:1011EC00A08070B50D460446524B1B6803F00703F4
:1011FC008B420BD24F4A136823F007030B43136047
:10120C00136803F007038B4240F08D80236813F0C2
:10121C00020F17D013F0040F04D0474A536843F45D
:10122C00E0635360236813F0080F04D0424A5368FC
:10123C0043F460535360404A536823F0F003A168B1
:10124C000B435360236813F0010F31D06368012BFB
:10125C0020D0022B25D0384A126812F0020F64D02D
:10126C0035494A6822F0030213434B60FFF768FDCF
:10127C000646314B5B6803F00C036268B3EB820FDC
:10128C0016D0FFF75DFD801B41F288339842F0D9F0
:10129C00032045E0284A126812F4003FE0D10120F7
:1012AC003EE0254A126812F0007FD9D1012037E0C8
:1012BC00204B1B6803F00703AB420AD91D4A136885
:1012CC0023F007032B431360136803F00703AB42AF
:1012DC002DD1236813F0040F06D0174A536823F45A
:1012EC00E063E1680B435360236813F0080F07D0E9
:1012FC00114A536823F46053216943EAC1035360D4
:10130C00FFF742FF0C4B5B68C3F303130B4AD35C30
:10131C00D8400B4B18600B4B1868FFF7CDFC002026
:10132C0070BD012070470120FAE70120F8E7012089
:10133C00F6E700BF00200240001002409C35000878
:10134C001400002010000020014B1868704700BFEB
:10135C001400002008B5FFF7F7FF044B5B68C3F3DC
:10136C000223034AD35CD84008BD00BF00100240E2
:10137C009435000870B582B00024A446A1E07E4DDF
:10138C00AB4214D00CD8A5F58015AB420FD005F5A7
:10139C007025AB420BD0A5F58015AB4210D106E001
:1013AC00764DAB4203D005F58035AB4208D18B6846
:1013BC00002B50D0012B49D04261082400E0CC68AE
:1013CC00BEF1FF0F49D806464FEA8C0233680F2551
:1013DC00954023EA050304FA02F2134333604B6889
:1013EC0013F0805F6BD0664B9A6942F001029A61F0
:1013FC009B6903F001030193019B4FEA9C02951C2E
:10140C00604B53F825600CF00305AD000F23AB4087
:10141C0026EA03065C4B984226D003F5806398427B
:10142C0000F08C8003F58063984200F0898003F50E
:10143C008063984216D0042317E0CC680434BFE7CD
:10144C00CC680834BCE7CC680C34B9E702610824DA
:10145C00B6E70024B4E70424B2E7061DACF1080299
:10146C009200B3E7032300E00023AB403343023286
:10147C00444D45F822304B6813F4801F62D0434A28
:10148C00936843EA0E0393604B6813F4001F5FD01C
:10149C003E4AD36843EA0E03D3604B6813F4003F13
:1014AC005CD03A4A536843EA0E0353604B6813F41A
:1014BC00803F59D0354A136843EA0E0313600CF190
:1014CC00010C0B6833FA0CF254D0012202FA0CF224
:1014DC0003EA020E32EA0303F1D14B68122B3FF6FA
:1014EC004EAF122B3FF66CAF01A555F823F000BFA1
:1014FC00BB130008CB1300084D1400085F14000840
:10150C00CD130008CD130008CD130008CD1300082F
:10151C00CD130008CD130008CD130008CD1300081F
:10152C00CD130008CD130008CD130008CD1300080F
:10153C00CD1300084714000853140008012394E746
:10154C00022392E7114A936823EA0E0393609BE708
:10155C000E4AD36823EA0E03D3609EE70B4A536806
:10156C0023EA0E035360A1E7084A136823EA0E032B
:10157C001360A4E702B070BD00002210000031100F
:10158C00001002400000014000080140000401402E
:10159C000AB101617047090401617047034690F874
:1015AC002120D2B2022A06D004228263002280F8C3
:1015BC0020200120704701680A6822F00E020A60A0
:1015CC0001680A6822F001020A60026CC06B0121FA
:1015DC0001FA02F2426083F82110002083F8200007
:1015EC007047000008B590F82130DBB2022B03D015
:1015FC0004238363012008BD0268136823F00E03E3
:10160C0013600268136823F0010313600368194A1E
:10161C00934214D0143293421FD0143293421ED0F2
:10162C00143293421ED0143293421ED01432934281
:10163C0002D04FF0807203E04FF4801200E00122E0
:10164C000D4B5A60012380F82130002380F82030A4
:10165C00436B6BB198470020CDE71022F0E74FF4B5
:10166C008072EDE74FF48052EAE74FF48032E7E7FF
:10167C000020C0E7080002400000024090F8210062
:10168C0070470000002808DB0901C9B200F1604076
:10169C0000F5614080F80013704700F00F0009015D
:1016AC00C9B2014B1954704714ED00E000B500F0BD
:1016BC000700C0F1070CBCF1040F28BF4FF0040C5D
:1016CC00031D062B0FD9C31E4FF0FF3E0EFA0CF074
:1016DC0021EA000199400EFA03FE22EA0E0241EAC9
:1016EC0002005DF804FB0023EEE70000074AD36814
:1016FC0023F4E0631B041B0C000200F4E0600343C2
:10170C0043F0BF6343F40033D360704700ED00E057
:10171C0010B50446054BD868C0F30220FFF7C6FF8E
:10172C0001462046FFF7AEFF10BD00BF00ED00E004
:10173C00002807DB00F01F02400901239340024AF6
:10174C0042F82030704700BF00E100E00138B0F1F2
:10175C00807F0BD24FF0E0235861054AF02182F8CC
:10176C0023100020986107221A61704701207047EE
:10177C0000ED00E0044B0022DA61044A136943F0E7
:10178C000103136101807047A00200200020024079
:10179C00194BDB6813F0100305D0184AD36943F0DA
:1017AC000203D3611023144AD26812F0040F06D03E
:1017BC001249CA6942F00102CA6143F004030E4A9D
:1017CC00D26912F0010F09D00C49CA6942F0040227
:1017DC00CA610949CA6922F00102CA6140F20112C8
:1017EC00934202D0044AD3607047034AD36923F072
:1017FC000103D361704700BF00200240A00200200B
:10180C000A4B1B6913F0800F0BD0084B084A5A6027
:10181C0002F188325A601B6913F0800F03D100204B
:10182C007047002070470120704700BF0020024025
:10183C0023016745034A136943F0800313610020B9
:10184C00704700BF0020024038B50446FFF778FA15
:10185C000546164BDB6813F0010F0AD0B4F1FF3FBD
:10186C00F7D024B1FFF76CFA401BA042F1D903204A
:10187C001BE00E4BDB6813F0200F02D00B4B202229
:10188C00DA600A4BDB6813F0100F0BD1074BDB69E6
:10189C0013F0010F06D1054BDB6813F0040F01D1D7
:1018AC00002002E0FFF774FF012038BD0020024049
:1018BC002DE9F8431E46244B1B7E012B41D00446D8
:1018CC000F469046204B01221A764CF25030FFF70F
:1018DC00BBFF034678BB012C08D0022C03D04FF081
:1018EC0004091C4607E04FF00209FAE74FF0010922
:1018FC00F7E70134E4B24C451DD22101C1F12002BD
:10190C00A1F1200328FA01F106FA02F2114326FA9A
:10191C0003F3194389B207EB4400FFF72BFF4CF29A
:10192C005030FFF791FF094B1D6925F001051D6132
:10193C0003460028DDD0044A002111761846BDE884
:10194C00F8830223FAE700BFA00200200020024027
:10195C00064B0022DA61064B1A6942F002021A6148
:10196C0058611A6942F040021A617047A0020020C7
:10197C000020024003685A6912F0800F01D0002247
:10198C001A61704790F83E30DBB2402B10D00369DF
:10199C00B3F5804F1BD0036D002B39D1436CC3F3CF
:1019AC00C813026803F0060343F0F0031361704799
:1019BC00036D2BB9436C026803F0FE03136170478F
:1019CC00436C026843F00103DBB21361704790F87B
:1019DC003D30DBB2212B0FD0436C026843F0010386
:1019EC00DBB21361436B6BB19B6A5BB102685368EA
:1019FC0043F4006353607047436C026803F0FE03CA
:101A0C001361EFE7836B33B19B6A002BEED102E0DD
:101A1C00036D012B00D07047436CC3F3C8130268ED
:101A2C0003F0060343F0F1031361F4E7436C02681F
:101A3C00DBB21361436B3BB19B6A2BB102685368F9
:101A4C0043F4006353607047836B002BFBD09B6A9D
:101A5C00002BF3D1F7E7000010B48DB090F83E30B6
:101A6C00DAB2C16A046B90F83D30DBB2222B0AD09B
:101A7C0000230B9303685A690B929B690B930B9B86
:101A8C000DB010BC7047036D0BB9402A17D0036D15
:101A9C001BB90369B3F5404F19D0438D9BB2002B92
:101AAC0025D1039303685A6903929A690392039AA6
:101ABC001A6842F400721A6000230365E0E7019390
:101ACC0003685A6901929B690193019BD8E7002333
:101ADC00029303685A6902929A690292029A1A68EE
:101AEC0042F480721A60036D01330365C8E7438DBD
:101AFC009BB2012B26D0438D9BB2022B7CD002686B
:101B0C00136843F48063136003685A6812F4006F1F
:101B1C000FD0202900F2B9800829C0F0B280083912
:101B2C005C4ACA4012F0010F03D05A6842F480524A
:101B3C005A6000230A9303685A690A929B690A93B4
:101B4C000A9BB9E711F5803F11D0082934D0202920
:101B5C0032D0122C2ED0042940D002293ED010298C
:101B6C003CD00268136823F4806313603BE0026886
:101B7C00136823F48063136003685A6812F4006FCF
:101B8C000CD01A6822F480621A6000230493036854
:101B9C005A6904929B690493049B8DE70022059279
:101BAC005A6905929A690592059A1A6842F400726C
:101BBC001A6081E70129D0D00268136823F480638E
:101BCC0013600023079303685A6907929A69079276
:101BDC00079A1A6842F400721A606DE7026813687B
:101BEC0043F4806313600023069303685A690692DA
:101BFC009B690693069B5FE7102912D8264BCB40B6
:101C0C0013F0010F0DD00268136843F48063136066
:101C1C000023099303685A6909929B690993099BEC
:101C2C0010E00268136843F4006313600023089308
:101C3C0003685A6908929A690892089A1A6822F4F9
:101C4C0080621A6003685A6812F4006F3FF434AF74
:101C5C00202911D808290BD308390E4ACA4012F092
:101C6C00010F3FF429AF5A6842F480525A6023E7BF
:101C7C0001297FF421AFF6E711F5803F7FF41CAF0B
:101C8C00F1E701297FF455AF4FE711F5803F7FF461
:101C9C0050AF4AE70101000114000100438D9BB2D3
:101CAC005BB1426A036812781A61436A013343627A
:101CBC00438D9BB2013B9BB243857047438D9BB2D6
:101CCC005BB103681A69436A1A70436A0133436251
:101CDC00438D9BB2013B9BB24385704782B000237E
:101CEC0001930E4B1B68DB080D4AA2FB03231B0A56
:101CFC0003EB83030193019B013B0193019B33B1E4
:101D0C0003681B6813F4007FF5D1002004E0036C1A
:101D1C0043F020030364012002B07047140000203C
:101D2C0089B5F814C36AB3F52A0F04D0C36AB3F1AA
:101D3C002A4F03D070470123C36270470823C36244
:101D4C00F8E70000002800F0CC8070B5044690F84D
:101D5C003D30002B77D0242384F83D302268136863
:101D6C0023F0010313602268136843F400431360EB
:101D7C002268136823F400431360FFF7EBFA6268E0
:101D8C005A4B9A4264D85A4B98428CBF0023012379
:101D9C00002B40F0A8805749A1FB00318B0C256823
:101DAC006A6822F03F0242EA91426A6021680A6A3C
:101DBC0022F03F0266684D4DAE424FD801331343BB
:101DCC000B622168CA6922F44F4222F0FF02656857
:101DDC00464B9D424CD8431E6D00B3FBF5F30133CB
:101DEC0040F6FC70034278D0C3F30B031A43CA616C
:101DFC0021680B6823F0C003E269206A0243134395
:101E0C000B6021688B6823F4034323F0FF032269E2
:101E1C00E068024313438B602168CB6823F0FF0317
:101E2C006269A06902431343CB602268136843F0D4
:101E3C000103136000202064202384F83D302063CC
:101E4C0084F83E0070BD80F83C30FEF7F3FE82E76C
:101E5C00294B98428CBF0023012399E74FF49675C8
:101E6C0005FB03F3254DA5FB03539B090133A6E7A3
:101E7C00A668BEB9431E05EB450CB3FBFCF301335E
:101E8C00C3F30B03B3FA83F35B0943BBC6B9431E1D
:101E9C0005EB4505B3FBF5F30133C3F30B0343F437
:101EAC000043A3E7431E05EB850C0CEB8C0CB3FB3A
:101EBC00FCF30133C3F30B03B3FA83F35B09E4E7DD
:101ECC00431E05EB850505EB8505B3FBF5F30133E7
:101EDC00C3F30B0343F4404388E7042386E7012351
:101EEC0084E7012070470120ACE700BFA086010009
:101EFC007F841E0083DE1B43FF083D00D34D621020
:101F0C0090F83DC00CF0280CBCF1280F38D10029FA
:101F1C0038D0002A38D030B482B090F83C40012C34
:101F2C0034D0012480F83C400468256815F0010F7A
:101F3C0003D1256845F00105256005682C6824F45B
:101F4C0000642C60292480F83D40202480F83E4019
:101F5C000024046441624285428D0285C36201946F
:101F6C0003685A6901929A690192019A80F83C407F
:101F7C005A6842F4E0625A60204602B030BC7047A6
:101F8C000220704701207047012070470220F4E7BF
:101F9C0090F83DC00CF0280CBCF1280F38D100296A
:101FAC0038D0002A38D030B482B090F83C40012CA4
:101FBC0034D0012480F83C400468256815F0010FEA
:101FCC0003D1256845F00105256005682C6824F4CB
:101FDC0000642C602A2480F83D40202480F83E4088
:101FEC000024046441624285428D0285C3620194DF
:101FFC0003685A6901929A690192019A80F83C40EF
:10200C005A6842F4E0625A60204602B030BC704715
:10201C000220704701207047012070470220F4E72E
:10202C0090F83D30DBB2202B01D0022070472823E2
:10203C0080F83D3003681A6812F0010F03D11A685A
:10204C0042F001021A600268136843F48063136063
:10205C000268536843F44073536000207047704724
:10206C0008B590F83D30DAB2438D9BB283B1416A2A
:10207C00036809781961436A01334362438D9BB24B
:10208C00013B9BB24385438D9BB20BB9292A00D0EF
:10209C0008BD0268536823F48063536021230363F3
:1020AC00282380F83D30FFF7DAFFF1E7704708B5D9
:1020BC0090F83D30DAB2438D9BB283B10368196955
:1020CC00436A1970436A01334362438D9BB2013BEF
:1020DC009BB24385438D9BB20BB92A2A00D008BD15
:1020EC000268536823F4806353602223036328231C
:1020FC0080F83D30FFF7DAFFF1E700B583B090F8D8
:10210C003D3003F02803282B0CD0002301930268E8
:10211C005169019192690192019A80F83C3003B0A7
:10212C005DF804FB0268536823F48063536011F07C
:10213C00040F0BD0002311F0800F09D182890021EC
:10214C0080F83C101946FEF7B9FAE8E70123F2E7EC
:10215C00028BF4E710B5044690F83D30DBB2C26A4E
:10216C00082A01D0202A01D1282B06D0212B1FD0E0
:10217C0023686FF480625A6110BD1D4BE3622268C4
:10218C00536823F4E063536023686FF480625A61F0
:10219C002268136823F480631360002323632022D6
:1021AC0084F83D2084F83E302046FEF773FAE3E7CE
:1021BC000F4BE36221232363202384F83D3000235B
:1021CC0084F83E302268536823F4E063536023683C
:1021DC006FF480625A612268136823F48063136081
:1021EC002046FFF7C7FB2046FFF739FFC4E700BFC7
:1021FC000000FFFF08B5C26A90F83D30DBB2212B1E
:10220C0000D008BD438D9BB263B1426A036812785B
:10221C001A61436A01334362438D9BB2013B9BB20B
:10222C004385EEE7082A04D0202A02D012F5803F1D
:10223C0019D10268536823F4E06353600268136891
:10224C0043F40073136000230363202380F83D30B4
:10225C0090F83E30DBB2402B15D0002380F83E3096
:10226C00FEF7A0FCCDE70268536823F4E0635360EB
:10227C0011230363002380F83E30202380F83D3087
:10228C00FEF790FCBDE7002380F83E30FEF788FC9B
:10229C00B7E708B590F83D30026D9AB9C36C012BC5
:1022AC0008D0836C0268C3F307231361036D0133F9
:1022BC00036508BD836C0268DBB21361036D0233E6
:1022CC000365F6E7DBB2026D012A23D0026D022A08
:1022DC003ED1222B26D0428D92B20AB1212B2AD08C
:1022EC00428D92B2002AE4D1212BE2D102685368CC
:1022FC0023F4E06353600268136843F400731360C3
:10230C0000230363202280F83D2080F83E30FEF746
:10231C0047FCCEE7836C0268DBB21361036D0133BB
:10232C000365C6E70268136843F480731360036D9A
:10233C0001330365BDE7426A036812781A61436A88
:10234C0001334362438D9BB2013B9BB24385B0E7A3
:10235C00FFF710FBADE710B590F83D30DBB290F80D
:10236C003E20D2B2C46A018D00293BD1212B02D070
:10237C00402A42D010BD082C04D0202C02D014F5D9
:10238C00803F19D10268536823F4E06353600268FC
:10239C00136843F40073136000230363202380F855
:1023AC003D3090F83E30DBB2402B15D0002380F846
:1023BC003E30FEF7F7FBDDE70268536823F4E06379
:1023CC00536011230363002380F83E30202380F8F0
:1023DC003D30FEF7E7FBCDE7002380F83E30FEF7FB
:1023EC00DFFBC7E7212BC3D1438D9BB243B90268F6
:1023FC00536823F480635360BCE7222BBAD1F3E714
:10240C0090F83E30DBB2402B0CD0426A0368127855
:10241C001A61436A01334362438D9BB2013B9BB209
:10242C004385A7E7FFF735FFA4E708B5C26A438DDC
:10243C009BB2042B14D0438D9BB2032B22D0438D23
:10244C009BB2022B39D003681A69436A1A70436A2B
:10245C0001334362438D9BB2013B9BB2438510E039
:10246C000268536823F48063536003681A69436AF3
:10247C001A70436A01334362438D9BB2013B9BB29A
:10248C00438508BD01684B6823F480634B60042AC4
:10249C0006D0022A04D00268136823F48063136008
:1024AC0003681A69436A1A70436A01334362438DA5
:1024BC009BB2013B9BB24385E3E7013A0F2A40D81C
:1024CC00DFE802F008393F393F3F3F3F3F3F3F3F96
:1024DC003F3F3F080268136823F48063136003686E
:1024EC001A69436A1A70426A531C4362438D9BB249
:1024FC00013B9BB2438503681B695370436A0133EC
:10250C004362438D9BB2013B9BB243850268536887
:10251C0023F440735360202380F83D3090F83E3014
:10252C00DBB2402B13D0002380F83E301223036320
:10253C00FEF739FBA5E70268136843F48063136068
:10254C00CDE70268136843F400731360C7E70023F8
:10255C0080F83E300363FEF724FB92E790F83D30A1
:10256C00DBB2222B00D0704710B50446438D9BB2D2
:10257C00032B15D903681A69436A1A70436A01332D
:10258C004362438D9BB2013B9BB24385438D9BB20F
:10259C00032B0FD10268536823F48063536009E066
:1025AC00C26A022A01D0012B05D92268536823F490
:1025BC008063536010BDFFF791FB00282ED1226879
:1025CC00136823F4806313602268536823F4E06378
:1025DC00536023681A69636A1A70636A0133636211
:1025EC00638D9BB2013B9BB26385202384F83D3005
:1025FC0094F83E30DBB2402B08D0002384F83E30F8
:10260C00122323632046FEF7CEFAD3E7002384F887
:10261C003E3023632046FEF7C4FACBE722685368AA
:10262C0023F4E063536023681A69636A1A70636A5F
:10263C0001336362638D9BB2013B9BB263852023A4
:10264C0084F83D30002384F83E302046FEF75EF8D7
:10265C00B0E7704700B583B000230193406A90F84F
:10266C003D20D2B2324B1B68DB083249A1FB03136D
:10267C001B0A03EB8303C3EBC3030193019B43B11D
:10268C00019B013B019303681B6813F4007FF5D198
:10269C0003E0036C43F020030364436B0BB1002194
:1026AC009962836B0BB10021996201680B6823F46A
:1026BC0080630B6000234385436B0BB1002159638E
:1026CC00836B0BB10021596301680B6823F0010384
:1026DC000B6090F83D30DBB2602B0ED002F028027C
:1026EC00282A14D0202380F83D30002380F83E3077
:1026FC00FEF70CF803B05DF804FB202380F83D30A6
:10270C00002380F83E300364FFF7A3FFF2E7026872
:10271C00136843F0010313600268136843F4806389
:10272C00136000230363282380F83D30E0E700BFEB
:10273C001400002089B5F81410B5044690F83D300B
:10274C00DBB290F83E20D2B2102A36D0402A34D0D8
:10275C0003F02802282A38D02268526812F4006F3D
:10276C0007D1602B05D0202384F83D30002384F85A
:10277C003E300023236323685A6812F4006F48D05C
:10278C005A6822F400625A60626B92F82130DBB214
:10279C00012B20D0444B5363606BFEF723FF0028C2
:1027AC0049D02268136823F001031360202384F8B6
:1027BC003D30606B436B98473DE0222BC8D12168BC
:1027CC000A6822F400620A60C2E70023236328230C
:1027DC0084F83D30CFE7A36B334A5A63A06BFEF706
:1027EC0001FF40B323685A6912F0400F05D01A69F3
:1027FC00636A1A70636A013363622268136823F098
:10280C0001031360202384F83D30A06B436B984781
:10281C0011E094F83D20D2B2602A1FD05A6912F010
:10282C00400F05D01A69636A1A70636A01336362D8
:10283C002046FDF76BFF236C13F00F0F04D02268BA
:10284C00536823F4E063536094F83D30DBB2226CA0
:10285C0012F0040F01D0282B18D010BD202284F8C0
:10286C003D20002222645A6912F0400F05D01A69EB
:10287C00636A1A70636A013363622268136823F017
:10288C00010313602046FFF7E4FED4E7074BE36235
:10289C0000232363202284F83D2084F83E30204618
:1028AC00FDF7F8FED9E700BF612600080000FFFF26
:1028BC0030B583B0044690F83D50EDB202685368D1
:1028CC0023F4E06353600023019303685A69019277
:1028DC001A6842F001021A60019B0268136823F423
:1028EC008063136003685A6812F4006F38D0222D8D
:1028FC0021D02A2D1FD0426B1268526892B24285A9
:10290C00428D92B21AB1026C42F0040202645A680F
:10291C0022F400625A60606BFEF7B0FE01281FD0F3
:10292C00636B444A5A63606BFEF75CFEC0B1606B2C
:10293C00436B984714E0A26B1268526892B262859E
:10294C00628D92B21AB1226C42F0040222645A686F
:10295C0022F400625A60A06BFEF790FE012842D16F
:10296C00638D9BB233B323685A6912F0040F0AD0FB
:10297C001A69636A1A70636A01336362638D9BB26E
:10298C00013B9BB2638523685A6912F0400F0AD051
:10299C001A69636A1A70636A01336362638D9BB24E
:1029AC00013B9BB26385638D9BB21BB1236C43F0DF
:1029BC0004032364236C13BB2A2D25D094F83D30DB
:1029CC00DBB2282B29D0236B222B01D0222D19D13D
:1029DC0000232363202284F83D2084F83E302046D7
:1029EC00FFF764FB0EE0A36B124A5A63A06BFEF771
:1029FC00F9FD0028B4D0A06B436B9847B0E7204694
:102A0C00FFF79AFE03B030BD00232363282384F81C
:102A1C003D302046FFF74AFBD0E7074BE36200232B
:102A2C002363202284F83D2084F83E302046FDF7B5
:102A3C0031FEE7E7612600080000FFFFF8B5044609
:102A4C0002685568C66A90F83E30DBB290F83D10CB
:102A5C00C8B2102B13D0402B11D0236C002B7AD082
:102A6C005369002113F0020F78D015F4007F75D054
:102A7C00236C03B191692046FFF73FFBF8BDD2F8F8
:102A8C0018C0516911F0010705D1B6F52A0FF5D020
:102A9C00B6F12A4FF2D017B115F4007F29D111F0FD
:102AAC00080F02D015F4007F2AD111F0020F02D0CA
:102ABC0015F4007F28D11CF0040F31D0526812F4A9
:102ACC00006FDBD111F0800F05D015F4806F02D0B0
:102ADC0011F0040F1CD011F0040FCFD015F4007FAF
:102AEC00CCD0212818D0402BC8D12046FFF7D1FBE1
:102AFC00C4E72046FFF716F92046FEF743FFBDE773
:102B0C002046FEF793FFB9E72046FEF7A5FFB5E791
:102B1C002046FFF720FCB1E72046FFF76BFBADE743
:102B2C00536813F4006FA9D111F0400F05D015F4C0
:102B3C00806F02D011F0040F09D011F0040F9DD05A
:102B4C0015F4007F9AD02046FFF76FFC96E72046DD
:102B5C00FFF704FD92E79169536983E713F0100FB7
:102B6C0002D015F4007F18D121281AD0292818D0AA
:102B7C0013F0400F05D015F4806F02D013F0040F42
:102B8C0028D013F0040F3FF479AF15F4007F3FF415
:102B9C0075AF2046FFF792F870E72046FFF788FEE6
:102BAC006CE713F0800F05D015F4806F02D013F092
:102BBC00040F0BD013F0040F3FF460AF15F4007F3B
:102BCC003FF45CAF2046FFF769F857E72046FFF764
:102BDC0047FA53E72046FFF76AFA4FE7F8B5044681
:102BEC0003685D695F6890F83E20D2B2C5F3002699
:102BFC0015F4807F0DD0C7F3002617F4807F08D022
:102C0C006FF48071596101680B6843F400430B60E9
:102C1C00012615F4007F08D017F4807F05D046F00C
:102C2C00020623686FF40071596115F4806F19D096
:102C3C0017F4807F16D0638D99B294F83D30DBB2D7
:102C4C00206B202A1BD023686FF48061596146F0F9
:102C5C000406102A01D0402A04D12268136843F4D8
:102C6C000073136015F4006F17D017F4807F14D025
:102C7C0046F0080623686FF400625A610EE00029E2
:102C8C00E1D1212B05D0292B03D0282BDBD12128F6
:102C9C00D9D12046FFF75EFAE4E72EB1236C33431B
:102CAC0023642046FFF748FDF8BD026802F10C03CF
:102CBC0053E8003F23F490730C3242E800310029B2
:102CCC00F3D1026802F1140353E8003F23F001032F
:102CDC00143242E800310029F3D1036B012B05D0EB
:102CEC00202380F84230002303637047026802F10E
:102CFC000C0353E8003F23F010030C3242E8003180
:102D0C000029F3D1ECE790F84130DBB2212B01D054
:102D1C00022070478368B3F5805F17D0036A5A1C92
:102D2C0002621A7803685A60C38C9BB2013B9BB257
:102D3C00C3844BB90268D36823F08003D360026864
:102D4C00D36843F04003D360002070470369002B25
:102D5C00E4D1036A1B880268C3F308035360036A57
:102D6C0002330362E0E7704708B50168CA6822F0D5
:102D7C004002CA60202280F84120FFF7F4FF0020B7
:102D8C0008BD7047704708B5406A0023C385C384EB
:102D9C00FFF7F8FF08BD704790F84230DBB2222BEA
:102DAC0069D18368B3F5805F4FD0826AB3F5805FD9
:102DBC0004D0002B56D10369002B53D103685B68F8
:102DCC001370836A01338362C38D9BB2013B9BB248
:102DDC00C385002B51D100B583B00268D36823F0B2
:102DEC002003D3600268D36823F48073D360026835
:102DFC00536923F001035361202380F842300023F0
:102E0C004363036B012B33D100230363026802F18C
:102E1C000C0353E8003F23F010030C3242E800315E
:102E2C000029F3D103681A6812F0100F06D00022A3
:102E3C0001921A6801925B680193019B818DFFF7E7
:102E4C00AAFF002003B05DF804FB0269002AACD194
:102E5C00826A03685B68C3F308031380836A0233D6
:102E6C008362B1E703685B6803F07F031370A8E724
:102E7C00FFF787FFE5E7022070470020704700004E
:102E8C0010B582B0044602681368D068516913F01B
:102E9C000F0F09D113F0200F0CD010F0200F09D018
:102EAC002046FFF779FF16E011F0010115D110F45F
:102EBC00907F12D1216B012979D013F0800F03D0B0
:102ECC0010F0800F40F0138113F0400F03D010F07E
:102EDC00400F40F0108102B010BD13F0010F06D06E
:102EEC0010F4807F03D0626C42F00102626413F034
:102EFC00040F04D019B1626C42F00202626413F048
:102F0C00020F04D019B1626C42F00402626413F037
:102F1C00080F07D010F0200F00D119B1626C42F0ED
:102F2C0008026264626C002AD5D013F0200F02D024
:102F3C0010F0200F29D123685B6903F04003626C09
:102F4C0012F0080F00D163B32046FFF7AEFE2368E2
:102F5C005B6913F0400F20D0226802F1140353E890
:102F6C00003F23F04003143242E800310029F3D132
:102F7C00E36B73B1624A5A63E06BFEF733FB0028D4
:102F8C00A9D0E06B436B9847A5E72046FFF704FFF9
:102F9C00D1E72046FFF7F6FE9DE72046FFF7F2FE4D
:102FAC0099E72046FFF7EEFE0023636493E713F0E6
:102FBC00100F82D010F0100F3FF47FAF002301935D
:102FCC001368019353680193019B536913F0400FED
:102FDC0051D0E26B13685B689BB2002B3FF47BAF64
:102FEC00A18D99427FF677AFE3859369202B37D07B
:102FFC00226802F10C0353E8003F23F480730C3277
:10300C0042E800310029F3D1226802F1140353E89D
:10301C00003F23F00103143242E800310029F3D1C0
:10302C00226802F1140353E8003F23F040031432EA
:10303C0042E800310029F3D1202384F842300023E8
:10304C002363226802F10C0353E8003F23F01003C2
:10305C000C3242E800310029F3D1E06BFEF79EFA06
:10306C0002236363A18DE38D9BB2C91A89B22046FA
:10307C00FFF791FE2FE7A18DE38D9BB2C91A89B2A0
:10308C00E38D9BB2002B3FF426AF00293FF423AF16
:10309C00226802F10C0353E8003F23F490730C32C6
:1030AC0042E800300028F3D1226802F1140353E8FF
:1030BC00003F23F00103143242E800300028F3D122
:1030CC00202384F8423000232363226802F10C038E
:1030DC0053E8003F23F010030C3242E80030002884
:1030EC00F3D1022363632046FFF755FEF3E6204637
:1030FC00FFF709FEEFE62046FFF736FEEBE600BFD2
:10310C00932D000870470000FFF7FCFF0B480C499B
:10311C000C4A002302E0D458C4500433C4188C4227
:10312C00F9D3094A094C002301E013600432A2428E
:10313C00FBD3FDF735F8FDF725FB704700000020A9
:10314C0018000020B435000818000020C002002030
:10315C00FEE70000F8B500BFF8BC08BC9E467047FF
:0C316C00F8B500BFF8BC08BC9E467047D8
:1031780000000000963007772C610EEEBA510999CD
:1031880019C46D078FF46A7035A563E9A395649E29
:103198003288DB0EA4B8DC791EE9D5E088D9D2974D
:1031A8002B4CB609BD7CB17E072DB8E7911DBF90A9
:1031B8006410B71DF220B06A4871B9F3DE41BE84CD
:1031C8007DD4DA1AEBE4DD6D51B5D4F4C785D38329
:1031D80056986C13C0A86B647AF962FDECC9658ACD
:1031E8004F5C0114D96C0663633D0FFAF50D088D29
:1031F800C8206E3B5E10694CE44160D5727167A2CD
:10320800D1E4033C47D4044BFD850DD26BB50AA528
:10321800FAA8B5356C98B242D6C9BBDB40F9BCAC4C
:10322800E36CD832755CDF45CF0DD6DC593DD1ABA8
:10323800AC30D9263A00DE518051D7C81661D0BFCC
:10324800B5F4B42123C4B3569995BACF0FA5BDB828
:103258009EB802280888055FB2D90CC624E90BB1CC
:10326800877C6F2F114C6858AB1D61C13D2D66B628
:103278009041DC760671DB01BC20D2982A10D5EF8C
:103288008985B1711FB5B606A5E4BF9F33D4B8E8E8
:10329800A2C9077834F9000F8EA8099618980EE18C
:1032A800BB0D6A7F2D3D6D08976C6491015C63E6E8
:1032B800F4516B6B62616C1CD83065854E0062F20C
:1032C800ED95066C7BA5011BC1F4088257C40FF568
:1032D800C6D9B06550E9B712EAB8BE8B7C88B9FC8C
:1032E800DF1DDD62492DDA15F37CD38C654CD4FBE8
:1032F8005861B24DCE51B53A7400BCA3E230BBD48C
:1033080041A5DF4AD795D83D6DC4D1A4FBF4D6D3E7
:103318006AE96943FCD96E34468867ADD0B860DA8B
:10332800732D0444E51D03335F4C0AAAC97C0DDDE7
:103338003C710550AA41022710100BBE86200CC90B
:1033480025B56857B3856F2009D466B99FE461CE67
:103358000EF9DE5E98C9D9292298D0B0B4A8D7C78B
:10336800173DB359810DB42E3B5CBDB7AD6CBAC0E7
:103378002083B8EDB6B3BF9A0CE2B6039AD2B17403
:103388003947D5EAAF77D29D1526DB048316DC735F
:10339800120B63E3843B64943E6A6D0DA85A6A7A03
:1033A8000BCF0EE49DFF099327AE000AB19E077D5F
:1033B80044930FF0D2A3088768F2011EFEC2066983
:1033C8005D5762F7CB67658071366C19E7066B6EDF
:1033D800761BD4FEE02BD3895A7ADA10CC4ADD6703
:1033E8006FDFB9F9F9EFBE8E43BEB717D58EB0605F
:1033F800E8A3D6D67E93D1A1C4C2D83852F2DF4F03
:10340800F167BBD16757BCA6DD06B53F4B36B2485E
:10341800DA2B0DD84C1B0AAFF64A0336607A044102
:10342800C3EF60DF55DF67A8EF8E6E3179BE69465E
:103438008CB361CB1A8366BCA0D26F2536E2685282
:1034480095770CCC03470BBBB91602222F260555DE
:10345800BE3BBAC5280BBDB2925AB42B046AB35C02
:10346800A7FFD7C231CFD0B58B9ED92C1DAEDE5B5E
:10347800B0C2649B26F263EC9CA36A750A936D0242
:10348800A906099C3F360EEB85670772135700059E
:10349800824ABF95147AB8E2AE2BB17B381BB60CC2
:1034A8009B8ED2920DBED5E5B7EFDC7C21DFDB0B1E
:1034B800D4D2D38642E2D4F1F8B3DD686E83DA1F42
:1034C800CD16BE815B26B9F6E177B06F7747B7189E
:1034D800E65A0888706A0FFFCA3B06665C0B011142
:1034E800FF9E658F69AE62F8D3FF6B6145CF6C169E
:1034F80078E20AA0EED20DD75483044EC2B3033942
:10350800612667A7F71660D04D476949DB776E3E9D
:103518004A6AD1AEDC5AD6D9660BDF40F03BD837C1
:1035280053AEBCA9C59EBBDE7FCFB247E9FFB5301D
:103538001CF2BDBD8AC2BACA3093B353A6A3B42441
:103548000536D0BA9306D7CD2957DE54BF67D9239D
:103558002E7A66B3B84A61C4021B685D942B6F2A41
:1035680037BE0BB4A18E0CC31BDF055A8DEF022D9D
:10357800A0860100801A060001020000020304056B
:10358800060708090A0B0C0D0E0F101000000000AA
:10359800010203040000000000000000010203040F
:0435A8000607080901
:0435AC0021020008F0
:0435B000FD01000811
:1035B40001000000005400400058004001000000D9
:0835C400100000000024F400D7
:0400000508003115A9
:00000001FF
