:030000061234565B
:020000040800F2
:108000000050002041AE0008518A0008538A000841
:10801000558A0008578A0008598A000800000000A5
:108020000000000000000000000000005B8A000863
:108030005D8A0008000000005F8A0008618A00086D
:1080400089AE000889AE000889AE000889AE000834
:1080500089AE000889AE000889AE000889AE000824
:1080600089AE000889AE000889AE000889AE000814
:1080700089AE000889AE000889AE000889AE000804
:1080800089AE000889AE000889AE000889AE0008F4
:1080900089AE000889AE000889AE000889AE0008E4
:1080A00089AE000889AE000889AE000889AE0008D4
:1080B00089AE000889AE000889AE0008698A000808
:1080C000798A000889AE000889AE000889AE0008E8
:1080D00089AE000889AE000889AE000889AE0008A4
:1080E00089AE000889AE000889AE000800000000D3
:1080F0000000000000000000000000000000000080
:0C81000000000000000000005FF808F123
:10810C0010B5054C237833B9044B13B10448AFF3C5
:10811C0000800123237010BD10000020000000001F
:10812C00D4AE000808B5034B1BB103490348AFF3A9
:10813C00008008BD0000000014000020D4AE000830
:10814C0000B586460E4B1B68002058620D49A1FBFA
:10815C000E2189094FF47A7202FB11EE40F2E63CD3
:10816C0002E05A6A624506D85A6A8142F9D89645A5
:10817C00F7D85DF804FB00225A620130F4E700BF27
:10818C002C000020D34D621070B504460E4601221F
:10819C0080210E4801F024FB2644B4420FD20C4D32
:1081AC0001F026FC204601F0CDFC2B6923F00203E4
:1081BC002B6101F033FC04F58064B442F0D300224F
:1081CC008021024801F00CFB70BD00BF000801408B
:1081DC000020024008B501F00BFC012200230649E7
:1081EC00022001F05BFC054A136923F002031361C2
:1081FC0001F014FC08BD00BF04F00108002002408F
:10820C008C46A9B10B4A9444002312F8011B0B4471
:10821C006245FAD15A42DBB2D2B258BF5342C3F5CF
:10822C00807303F0FF03834214BF002001207047CA
:10823C000023EFE7D80000202DE9F047994940F2E0
:10824C002F1000F065FB984B1B78012B0CD9974B2A
:10825C001B78013B052B0AD8DFE813F00B001A0042
:10826C002F004F007300060101338F4A1370BDE8D5
:10827C00F0878F490B788F4A12788F48C2548B48FD
:10828C000224047005328D48027001330B70EEE746
:10829C00874B1A78874B1B7887498B548849086819
:1082AC0003441B020B60022A03D00132804B1A706C
:1082BC00DDE77E4B03211970F7E77D4B1A787D4B78
:1082CC001B787D498B5433B1042B04D0012B0BD07C
:1082DC00062B18BF0A237B490B70744B04211970B1
:1082EC000132734B1A70C2E76E4940F22B2000F03A
:1082FC000FFB6E4B06221A70B9E76D4B1B786D4A5B
:10830C0012786D49CA546F490978042907D0062997
:10831C000AD16D490868024412020A6004E06B49F4
:10832C000868024412020A60644A1278023A9342C4
:10833C0003D001335E4A137099E75C4A0521117032
:10834C00F7E75B4B19785B4B18785B4B5854FFF78E
:10835C0057FF002875D05B4B1D78062D0BD0002DD8
:10836C006CD15B4B1B78012B19D04E4940F22B2062
:10837C0000F0CEFA6AE0544B1A68564B9A4205D07C
:10838C00484940F2951000F0C3FA5FE0504B0122CF
:10839C001A70444940F22B2000F0BAFA56E0484AD1
:1083AC004A4B196813681B0A43EA01231360424BBA
:1083BC001B78002B3CD0484E2B46484FDFF82091C1
:1083CC00904605E0023C3C4AA41A127894422FDAFB
:1083DC00344616F8012FFA540133DBB2042BF1D1D9
:1083EC00FA78BB781B0443EA02633A7813437A7831
:1083FC0043EA0223C9F8003001F0FAFA4FF0000A00
:10840C00D9F800205346D8F80010022001F046FBA2
:10841C00344A136923F00203136101F0FFFAD8F810
:10842C0000300433C8F80030C9F800A02B46C9E767
:10843C001C4940F22B2000F06BFA07E00A2D05D006
:10844C0093E718494FF4CA7000F062FA1D4B0A22E8
:10845C001A700123154A1370002215490A70184925
:10846C000A60114A137002E7164B0A221A700F4B5E
:10847C0001221A7000230E4A1370114A13601A4A13
:10848C0013701A4A1370114A1360154A1360064A86
:10849C0013700F4A1370034940F22B2000F038FA86
:1084AC00E5E600BF5401002044010020010000203B
:1084BC003C01002060010020D8000020D5000020E5
:1084CC00CC0000200000002040010020D000002043
:1084DC003D01002000563412DB0000204801002032
:1084EC004C01002000200240D40000205E0100203E
:1084FC0008B501F08BFC08BD10B511B1012907D0EE
:10850C0010BD01230A222649264801F0EFFBF7E7AC
:10851C00254C082301222146224801F02FFC237808
:10852C00F32B11D0F22B17D0204A1278012A13D03A
:10853C00F12BE5D0F42B1BD0F52B28D1002ADFD161
:10854C001B4B01221A70DBE71A4B1B78012B07D14E
:10855C00164B1B78012BD3D1174B01221A70CFE786
:10856C000122164B1A708021154801F039F9C7E722
:10857C00002AC5D1BFF34F8F1249CA6802F4E062DA
:10858C00114B1343CB60BFF34F8F00BFFDE7F62BAE
:10859C00B6D1002AB4D10D4B01221A70B0E700BF3E
:1085AC00540100207400002060010020D400002041
:1085BC00C90000205E010020CB000020CA00002072
:1085CC000008014000ED00E00400FA05C80000209E
:1085DC0000B591B00023089309930B930C9301936E
:1085EC000293039304930593012206924FF4803374
:1085FC0007930A9202220D920E934FF4E0130F93FD
:10860C0006A800F09FFC80B90F2301930221029170
:10861C00002303934FF480620492059301A800F0A9
:10862C00D1FE20B911B05DF804FB72B6FEE772B64C
:10863C00FEE700002DE9F0438BB000F051FCFFF792
:10864C00C7FF62B6002406940794089409949D4BC6
:10865C009A6942F010029A619A6902F01002009233
:10866C00009A9A6942F020029A619A6902F02002FB
:10867C000192019A9A6942F004029A619A6902F095
:10868C0004020292029A9A6942F008029A619B696A
:10869C0003F008030393039BDFF82C9222464FF45C
:1086AC000051484601F09CF8DFF8208222468021D8
:1086BC00404601F095F8864D22464FF4007128464D
:1086CC0001F08EF84FF40053069301270797089496
:1086DC000226099606A9484600F03CFF8023069323
:1086EC0007970894099606A9404600F033FF4FF40B
:1086FC00807306930794089406A9284600F02AFF75
:10870C004FF40073069307970894099606A9284618
:10871C0000F020FF06960794089406A9284600F05E
:10872C0019FF0694079408940994049405946948D5
:10873C004FF0804303604723436084604FF6FF7320
:10874C00C3600461846100F083FA002830D14FF4D7
:10875C008053069306A95F4800F0B2FA50BB002381
:10876C000493059304A95B4800F060FB20BB5A48B6
:10877C005A4B03605A4B4360002383601022C26043
:10878C004FF48042026143618361C36180230362C1
:10879C0001F0EAF990B94F4800F0DEF94E4C204652
:1087AC0001F034FB204601F0F3FC4E4E474F85E0C0
:1087BC0072B6FEE772B6FEE772B6FEE772B6FEE779
:1087CC00284600F0DFF8484B1860484900F0A0F844
:1087DC0000228021384601F003F822E04FF40041DA
:1087EC004348FFF7D1FC22E0424B00221A70424B67
:1087FC001B78002B2BD1414B1B781BB1404B1B78AA
:10880C00012B2AD00221324800F0E4FF012835D098
:10881C003C4B1B78012B31D0013C42D03378002BE0
:10882C00CED029462A4800F0D5FF0128D6D0314BAE
:10883C001B78002BDBD0324B1B78002BD4D1304B68
:10884C001D704FF400412A48FFF79EFCCCE7FFF760
:10885C00C1FC294B00221A70CDE73570FFF7ECFCF8
:10886C008021384600F0C2FF244B00221A70337866
:10887C00002BC7D100200BB0BDE8F08301F0B8F895
:10888C00012200232049022001F008F91F4A136934
:10889C0023F00103136101F0C1F81A4B00221A7086
:1088AC00BAE700F041FB0121002001F063F800F071
:1088BC0042FB01228021384600F092FF482401251A
:1088CC00ACE700BF0010024000100140000801405E
:1088DC00000C01402C0000207400002000540040CB
:1088EC00A0860100D400002050010020540100207B
:1088FC0000000108CA000020C8000020CB000020A6
:10890C005E010020C900002000F001080020024098
:10891C0030B50028BABF4042012500250023184C71
:10892C009C460133DBB284FB002EC217C2EBAE02B5
:10893C0002EB820EA0EB4E00303001F80C0010461A
:10894C00002AEDD12DB10CF1020C2D22CA545FFA84
:10895C008CF30022CA54013B13F0FF030ED0D0B2AB
:10896C0011F800C011F803E001F800E001F803C0B1
:10897C00013BDBB20132D0B28342F0D830BD00BF34
:10898C00676666662DE9F84381462B4C2B4E4FF4F7
:10899C0080752946304600F01DFF012802D1013CAC
:1089AC00F7D145E018250024244F01264FF4007818
:1089BC0032464146384600F013FF3046FFF7C0FB05
:1089CC00640000224146384600F00AFF3046FFF7AB
:1089DC00B7FB4FF48071384600F0FCFE012808BF4D
:1089EC0001346B1E13F0FF05E2D1B9F1000F18D062
:1089FC000026DFF8488001254FF400772A463946D7
:108A0C00404600F0EDFE2846FFF79AFB002239465F
:108A1C00404600F0E5FE2846FFF792FB01364E4536
:108A2C00ECD184F400044FF40051054800F0DEFE54
:108A3C002046BDE8F88300BFA1860100000C014070
:108A4C0000100140FEE7FEE7FEE7FEE7FEE7704799
:108A5C007047704708B500F055FA08BD08B50248D4
:108A6C0001F096FB08BD00BF7400002008B5024859
:108A7C0002F0FAF808BD00BF7400002082B00A4B67
:108A8C009A6942F001029A619A6902F0010200921D
:108A9C00009ADA6942F08052DA61DB6903F08053A4
:108AAC000193019B02B070470010024010B586B0D4
:108ABC00002302930393049305930268194B9A4283
:108ACC0001D006B010BD184CA36943F00803A36194
:108ADC00A36903F008030093009BC02302931223A5
:108AEC0003930323059302A9104800F033FDE369B7
:108AFC0043F40013E361E36903F400130193019B56
:108B0C00002211461F2000F0DDFE1F2000F010FF98
:108B1C0000221146202000F0D5FE202000F008FF96
:108B2C00CFE700BF0054004000100240000C014091
:108B3C000368B3F1804F00D0704782B003F5043363
:108B4C00DA6942F00102DA61DB6903F00103019397
:108B5C00019B02B07047000090F83D30DBB2012B56
:108B6C0022D1022380F83D300368114A934210D081
:108B7C00B3F1804F0DD0A2F59432934209D002F597
:108B8C008062934205D01A6842F001021A600020FC
:108B9C0070479A6802F00702062A07D01A6842F05A
:108BAC0001021A60002070470120704700207047B6
:108BBC00002C01400368254A904214D0B0F1804F3C
:108BCC0026D0A2F59432904236D002F580629042C3
:108BDC0037D023F080034A69134303608B68C36268
:108BEC000B68836225E023F070034A68134323F477
:108BFC004073CA68134323F080034A69134303602C
:108C0C008B68C3620B6883620A69104B1A6310E0AD
:108C1C0023F070034A68134323F44073CA68134368
:108C2C0023F080034A69134303608B68C3620B68AB
:108C3C00836201234361704723F070034A68134336
:108C4C00EAE723F070034A681343E5E7002C014080
:108C5C0040B310B5044690F83D30F3B1022384F8CC
:108C6C003D30214651F8040BFFF7A4FF012384F893
:108C7C00463084F83E3084F83F3084F8403084F835
:108C8C00413084F8423084F8433084F8443084F81E
:108C9C00453084F83D30002010BD80F83C30FFF7A3
:108CAC0047FFDBE70120704710B4846824F47F4C45
:108CBC000A4342EA032242EA0C02826010BC70476B
:108CCC0038B590F83C30012B00F0AD800446012300
:108CDC0080F83C30022380F83D300268936823F41E
:108CEC007F4323F0770393600B68602B60D03DD8F3
:108CFC00402B79D01CD9502B36D103684868CD68ED
:108D0C00196A1A6A22F001021A629A6922F0F002B8
:108D1C0042EA051221F00A0101439A6119622268A4
:108D2C00936823F0700343F057039360002012E024
:108D3C00202B02D00BD9302B14D121688A6822F059
:108D4C007002134343F007038B60002003E033F001
:108D5C001002F2D00120012384F83D30002384F866
:108D6C003C3038BD0120F6E70120F4E7B3F5805F15
:108D7C0055D0B3F5005F0CD1CB684A6889680068A0
:108D8C00FFF792FF2268936843F4804393600020BE
:108D9C00E1E7702B45D1CB684A6889680068FFF71A
:108DAC0083FF2268936843F0770393600020D2E737
:108DBC0003684868CD681A6A196A21F010011962B3
:108DCC00996921F4704141EA053122F0A00242EA8E
:108DDC00001299611A622268936823F0700343F0C1
:108DEC00670393600020B6E703684868CD68196A8A
:108DFC001A6A22F001021A629A6922F0F00242EA1F
:108E0C00051221F00A0101439A61196222689368E4
:108E1C0023F0700343F04703936000209BE700208E
:108E2C0099E7012097E702209BE7000090F83C208F
:108E3C00012A2BD030B40346012280F83C200222B8
:108E4C0080F83D2004686268A06822F070020D680A
:108E5C002A4362601A680E4CA2420AD0B2F1804FCB
:108E6C0007D0A4F59434A24203D004F58064A24246
:108E7C0004D120F08000496808439060012283F8F7
:108E8C003D20002083F83C0030BC70470220704726
:108E9C00002C014010B504460E4B1A784FF47A732F
:108EAC00B3FBF2F30C4A1068B0FBF3F000F04EFD8C
:108EBC0068B90F2C01D901200AE0002221464FF09D
:108ECC00FF3000F0FFFC054B1C60002000E001208F
:108EDC0010BD00BF0200002008000020040000208C
:108EEC0008B5074A136843F010031360032000F021
:108EFC00D7FC0F20FFF7CEFFFFF7C0FD002008BD09
:108F0C0000200240034A1168034B1B780B4413608A
:108F1C00704700BF6401002002000020014B18685C
:108F2C00704700BF640100204FF0E022136923F06A
:108F3C000203136170474FF0E022136943F0020300
:108F4C0013617047002800F001822DE9F04182B0D6
:108F5C000446036813F0010F2CD09F4B5B6803F0A1
:108F6C000C03042B1DD09C4B5B6803F00C03082BEB
:108F7C0012D06368B3F5803F41D0002B55D103F17B
:108F8C00804303F504331A6822F480321A601A689D
:108F9C0022F480221A6037E08F4B5B6813F4803F19
:108FAC00E7D08D4B1B6813F4003F03D06368002B94
:108FBC0000F0CE81236813F0020F75D0864B5B68EE
:108FCC0013F00C0F5FD0844B5B6803F00C03082B81
:108FDC0054D02369002B00F08A80804B01221A6048
:108FEC00FFF79CFF05467C4E336813F0020F75D1DA
:108FFC00FFF794FF401B0228F6D90320ADE1764A17
:10900C00136843F480331360636843B3FFF786FF40
:10901C000546714E336813F4003FCBD1FFF77EFF4A
:10902C00401B6428F6D9032097E1B3F5A02F09D093
:10903C00694B1A6822F480321A601A6822F4802272
:10904C001A60E1E703F18043A3F53C331A6842F45C
:10905C0080221A601A6842F480321A60D4E7FFF753
:10906C005DFF05465C4E336813F4003FA2D0FFF75A
:10907C0055FF401B6428F6D903206EE1564B5B6804
:10908C0013F4803FA5D1544B1B6813F0020F03D08F
:10909C002369012B40F05E814F4A1368616923F00C
:1090AC00F80343EAC1031360236813F0080F3DD0A3
:1090BC00A369002B66D0494B0122C3F88024FFF72B
:1090CC002DFF0546444E736A13F0020F21D1FFF7B2
:1090DC0025FF401B0228F6D903203EE13E4A1368C7
:1090EC00616923F0F80343EAC1031360DCE73B4BEF
:1090FC0000221A60FFF712FF0546374E336813F053
:10910C00020FD1D0FFF70AFF401B0228F6D903202B
:10911C0023E1334B1B68334AA2FB03235B0A019305
:10912C0000BF019B5A1E0192002BF9D1236813F04A
:10913C00040F00F09B80284BDB6913F0805F34D167
:10914C00254BDA6942F08052DA61DB6903F0805317
:10915C000093009B0125244B1B6813F4807F26D0C1
:10916C00E368012B42D0002B58D103F1804303F567
:10917C0004331A6A22F001021A621A6A22F00402FB
:10918C001A6238E0154B0022C3F88024FFF7C6FEA4
:10919C000546114E736A13F0020FC7D0FFF7BEFEDF
:1091AC00401B0228F6D90320D7E00025D3E70E4A4E
:1091BC00136843F480731360FFF7B0FE06460A4F42
:1091CC003B6813F4807FCBD1FFF7A8FE801B64288B
:1091DC00F6D90320C1E000BF00100240000042425B
:1091EC0008000020D34D6210007000405E4A136AE4
:1091FC0043F001031362E36833B3FFF78FFE0646B7
:10920C00594F41F288383B6A13F0020F2DD1FFF70A
:10921C0085FE801B4045F6D903209EE0052B09D026
:10922C00514B1A6A22F001021A621A6A22F00402E5
:10923C001A62E0E74C4B1A6A42F004021A621A6A8C
:10924C0042F001021A62D6E7FFF768FE0646464F67
:10925C0041F288383B6A13F0020F06D0FFF75EFE2E
:10926C00801B4045F6D9032077E0E5B9E369002B74
:10927C0072D03D4A526802F00C02082A56D0022BDA
:10928C0017D03A4B00221A66FFF748FE0446364DBB
:10929C002B6813F0007F47D0FFF740FE001B02281D
:1092AC00F6D9032059E0304AD36923F08053D361B7
:1092BC00DCE72E4B00221A66FFF730FE05462A4EDD
:1092CC00336813F0007F06D0FFF728FE401B0228FE
:1092DC00F6D9032041E0236AB3F5803F1AD0224926
:1092EC004A68236A606A034322F4741213434B6086
:1092FC001E4B01221A66FFF711FE04461A4D2B680D
:10930C0013F0007F0ED1FFF709FE001B0228F6D9DF
:10931C00032022E0144A536823F40033A1680B4362
:10932C005360DCE7002018E0002016E0012B17D07A
:10933C000D4B5B6803F48031226A914212D103F425
:10934C007013606A181A18BF012006E001207047DC
:10935C00012002E0012000E0002002B0BDE8F08115
:10936C000120FAE70120F8E7001002400000424219
:10937C000F4B5B6803F00C02082A01D00D487047B4
:10938C00C3F383420C49885C13F4803F0BD0084B29
:10939C005B68084A02FB00F0C3F34043074AD35C06
:1093AC00B0FBF3F07047064B03FB00F0704700BFB7
:1093BC000010024000127A00F0AE0008ECAE00087B
:1093CC0000093D00002800F0A2802DE9F0410D4677
:1093DC000446534B1B6803F007038B420BD2504AD5
:1093EC00136823F007030B431360136803F00703A0
:1093FC008B4240F08E80236813F0020F17D013F0CD
:10940C00040F04D0474A536843F4E0635360236865
:10941C0013F0080F04D0434A536843F4605353606D
:10942C00404A536823F0F003A1680B435360236850
:10943C0013F0010F31D06268012A20D0022A25D006
:10944C00384B1B6813F0020F65D036494B6823F07C
:10945C00030313434B60FFF761FD0646314F41F2A6
:10946C0088387B6803F00C036268B3EB820F14D06E
:10947C00FFF754FD801B4045F3D9032045E0294BF1
:10948C001B6813F4003FE0D101203EE0254B1B6824
:10949C0013F0007FD9D1012037E0214B1B6803F07A
:1094AC000703AB420AD91E4A136823F007032B4368
:1094BC001360136803F00703AB422ED1236813F03B
:1094CC00040F06D0174A536823F4E063E1680B439A
:1094DC005360236813F0080F07D0124A53682169B0
:1094EC0023F4605343EAC1035360FFF741FF0D4B74
:1094FC005B68C3F303130C4AD35CD8400B4B186066
:10950C000B4B1868FFF7C6FC0020BDE8F08101206A
:10951C0070470120F9E70120F7E70120F5E700BFCC
:10952C00002002400010024008AF00080800002094
:10953C0004000020044B5B68C3F30223034AD35C92
:10954C00034A1068D84070470010024000AF000872
:10955C00080000202DE9F04F83B0D1F80090B9F14C
:10956C00000F00F0268100221346934D934C944E2D
:10957C00DFF850E29446BEE0A1450DD004D9B145C8
:10958C000AD0F14508D01BE0DFF83CA2D14503D04E
:10959C000AF5702AD1450FD1D1F808C0BCF1000FE3
:1095AC0000F0FB80BCF1010F0CBFC0F81080C0F8BC
:1095BC0014804FF0080C03E0AAF5801AD145EBD0CB
:1095CC00FF2F99BF8146924600F10409A2F1200AAF
:1095DC00D9F800804FF00F0B0BFA0AFB28EA0B08A6
:1095EC000CFA0AFA48EA0A08C9F80080D1F8048093
:1095FC0018F0805F78D0D5F8188048F00108C5F8CD
:10960C001880D5F8188008F00108CDF80480DDF832
:10961C00048023F0030808F1804808F58038D8F856
:10962C0008A003F0030B4FEA8B0B4FF00F0909FA5C
:10963C000BF92AEA090ADFF89491484500F0B0804A
:10964C0009F58069484500F0AE8009F58069484508
:10965C0000F0AC8009F58069484514BF4FF004094F
:10966C004FF0030909FA0BF949EA0A09C8F80890FE
:10967C00D1F8048018F4801FDFF85491D9F80880D1
:10968C0014BF48EA070828EA0708C9F80880D1F887
:10969C00048018F4001FDFF83891D9F80C8014BF3F
:1096AC0048EA070828EA0708C9F80C80D1F80480B2
:1096BC0018F4003FDFF81891D9F8048014BF48EA79
:1096CC00070828EA0708C9F80480D1F8048018F4C0
:1096DC00803FDFF8FC90D9F8008014BF48EA0707F8
:1096EC0028EA0707C9F800700133D1F8009004325A
:1096FC0039FA03F75DD04FF0010808FA03F808EACD
:10970C00090738EA0909EFD1D1F80490B9F1120F21
:10971C003FF632AFB9F1120F3FF652AF0FF2040A17
:10972C005AF829F0A59500087D9700088D97000838
:10973C00A1970008CD950008CD950008CD9500089F
:10974C00CD950008CD950008CD950008CD95000865
:10975C00CD950008CD950008CD950008CD95000855
:10976C00CD950008CD9500088397000897970008C1
:10977C00D1F80CC024E7D1F80CC00CF1040C1FE795
:10978C00D1F80CC00CF1080C1AE7D1F80CC00CF194
:10979C000C0C15E74FF0000C12E74FF0040C0FE720
:1097AC004FF000095EE74FF001095BE74FF002094B
:1097BC0058E703B0BDE8F08F001002400000221003
:1097CC00000031100000321000001210000801409F
:1097DC00000401408368194214BF01200020704727
:1097EC000AB101617047090401617047C36801EA5D
:1097FC00030221EA030141EA0241016170470000C2
:10980C0008B590F82130DBB2022B03D0042383631C
:10981C00012008BD0268136823F00E031360026870
:10982C00136823F0010313600368194A934213D0A1
:10983C00143293421ED0143293421DD014329342F0
:10984C001DD0143293421DD01432934214BF4FF0EA
:10985C0080734FF4801300E001230E4A5360012300
:10986C0080F82130002380F82030436B6BB198478F
:10987C000020CEE71023F0E74FF48073EDE74FF4B0
:10988C008053EAE74FF48033E7E70020C1E700BFDD
:10989C00080002400000024090F8210070470000D0
:1098AC000749CA68030203F4E06322F4E06212047D
:1098BC00120C134343F0BF6343F40033CB60704787
:1098CC0000ED00E000B5184BDB68C3F30223C3F1D5
:1098DC00070CBCF1040F28BF4FF0040C03F1040E6D
:1098EC00BEF1060F8CBF033B00234FF0FF3E0EFA78
:1098FC000CFC21EA0C0199400EFA03FE22EA0E023E
:10990C001143002809DB0901C9B200F1604000F5E0
:10991C00614080F800135DF804FB00F00F000901B2
:10992C00C9B2024B1954F6E700ED00E014ED00E06B
:10993C00002807DB410900F01F0001238340024A85
:10994C0042F82130704700BF00E100E00138B0F16F
:10995C00807F0BD24FF0E0235861054AF02182F84A
:10996C0023100020986107221A617047012070476C
:10997C0000ED00E0064A136923F00403136101298A
:10998C0003D040BF20BF20BF704730BF704700BF1F
:10999C0000ED00E0144BDB6813F0100305D0134A04
:1099AC00D36943F00203D36110230F4AD26812F03B
:1099BC00040F06D00D49CA6942F00102CA6143F096
:1099CC000403094AD26912F0010F09D00749CA6988
:1099DC0042F00402CA610449CA6922F00102CA6158
:1099EC00014AD360704700BF00200240680100208C
:1099FC00084B1B6913F0800F09D0064B064A5A60BE
:109A0C0002F188325A601869C0F3C0107047002008
:109A1C00704700BF0020024023016745034A1369C9
:109A2C0043F0800313610020704700BF0020024008
:109A3C0070B50446FFF772FA0646174DEB6813F043
:109A4C00010F0AD0B4F1FF3FF8D01CB3FFF766FA50
:109A5C00801BA042F2D903201BE00F4BDB6813F0F4
:109A6C00200F02D00C4B2022DA600B4BDB6813F07A
:109A7C00100F0BD1084BDB6913F0010F06D1064B0D
:109A8C00DB6813F0040F01D1002002E0FFF782FF26
:109A9C00012070BD0320FCE7002002402DE9F84FA7
:109AAC001F46264B1B7E012B45D004460D46904687
:109ABC00224B01221A764CF25030FFF7B9FF0346C5
:109ACC0080BB012C34D0022C14BF4FF004094FF092
:109ADC00020905EB49090024DFF860B0A246184ED4
:109AEC00C4F12001A4F1200228FA04F307FA01F1D1
:109AFC000B4327FA02F213439BB2CBF81CA032693A
:109B0C0042F0010232612B804CF25030FFF790FF93
:109B1C00336923F001033361034618B9103402355D
:109B2C004D45DDD1054A002111761846BDE8F88F68
:109B3C004FF00109CDE70223F7E700BF68010020D1
:109B4C0000200240064B0022DA61064B1A6942F0F3
:109B5C0002021A6158611A6942F040021A61704798
:109B6C006801002000200240002800F0B18038B5C8
:109B7C00044690F83D30002B74D0242384F83D30FB
:109B8C002268136823F0010313602268136843F4FE
:109B9C00004313602268136823F400431360FFF73B
:109BAC00C9FC62684C4B9A4261D84C4B984240F2CB
:109BBC0091804B49A1FB00318B0C25686A6822F01F
:109BCC003F0242EA91426A6021680A6A22F03F022F
:109BDC00414DD4F804C0AC454ED8013313430B624D
:109BEC002168CA6922F44F4222F0FF0265683A4BA1
:109BFC009D424BD8431E6D00B3FBF5F3013340F689
:109C0C00FC7003425ED0C3F30B031A43CA61216894
:109C1C000A68E369206A034322F0C00213430B6015
:109C2C0021688A682369E068034322F4034222F026
:109C3C00FF0213438B602168CA686369A069034300
:109C4C0022F0FF021343CB602268136843F0010338
:109C5C00136000202064202384F83D30206384F8B6
:109C6C003E0038BD80F83C30FEF720FF85E71D4BE9
:109C7C0098429ED80120F4E74FF4967505FB03F348
:109C8C00194DA5FB03539B090133A7E7A3685BB9E7
:109C9C00431E05EB4505B3FBF5F30133C3F30B038F
:109CAC0093B143F40043B0E7431E05EB850505EB88
:109CBC008505B3FBF5F30133C3F30B0333B143F465
:109CCC004043A2E70423A0E701239EE701239CE77E
:109CDC00012070470120C4E7A08601007F841E008C
:109CEC0083DE1B43FF083D00D34D621090F83DC04E
:109CFC000CF0280CBCF1280F38D1002938D0002AE0
:109D0C0038D030B482B090F83C40012C34D00124CF
:109D1C0080F83C400468256815F0010F03D12568D4
:109D2C0045F00105256005682C6824F400642C605E
:109D3C00292480F83D40202480F83E40002404640F
:109D4C0041624285428D0285C362019403685A695F
:109D5C0001929A690192019A80F83C405A6842F447
:109D6C00E0625A60204602B030BC70470220704757
:109D7C0001207047012070470220F4E790F83DC0A5
:109D8C000CF0280CBCF1280F38D1002938D0002A4F
:109D9C0038D030B482B090F83C40012C34D001243F
:109DAC0080F83C400468256815F0010F03D1256844
:109DBC0045F00105256005682C6824F400642C60CE
:109DCC002A2480F83D40202480F83E40002404647E
:109DDC0041624285428D0285C362019403685A69CF
:109DEC0001929A690192019A80F83C405A6842F4B7
:109DFC00E0625A60204602B030BC704702207047C7
:109E0C0001207047012070470220F4E790F83D30A4
:109E1C00DBB2202B01D002207047282380F83D3084
:109E2C0003681A6812F0010F03D11A6842F001029C
:109E3C001A600268136843F4806313600268536805
:109E4C0043F440735360002070477047704770476D
:109E5C007047704708B590F83D30026D9AB9C36CE5
:109E6C00012B08D0836C0268C3F307231361036DC5
:109E7C000133036508BD836C0268DBB21361036DAB
:109E8C0002330365F6E7DBB2026D012A0BD0026DDB
:109E9C00022A3FD1222B0ED0428D92B202B3212B3B
:109EAC0012D0438DE6E7836C0268DBB21361036D5D
:109EBC0001330365DEE70268136843F480731360B3
:109ECC00036D01330365D5E70368426A12781A61A2
:109EDC00436A01334362438D013B9BB24385C9E71F
:109EEC00428D92B2002AC5D1212BC3D1026853688E
:109EFC0023F4E06353600268136843F40073136047
:109F0C0000230363202280F83D2080F83E30FFF7C9
:109F1C00A0FFAFE703685A6912F0800FAAD00022A5
:109F2C001A61A7E7704770477047000000B583B00F
:109F3C0000230193406A90F83D20D2B2324B1B684B
:109F4C00DB083249A1FB03131B0A03EB8303C3EBAE
:109F5C00C3030193019B43B1019B013B0193036834
:109F6C001B6813F4007FF5D103E0036C43F020036E
:109F7C000364436B0BB100219962836B0BB100211D
:109F8C00996201680B6823F480630B60002343859E
:109F9C00436B0BB100215963836B0BB100215963E7
:109FAC0001680B6823F001030B6090F83D30DBB2C5
:109FBC00602B0ED002F02802282A14D0202380F81F
:109FCC003D30002380F83E30FFF7ADFF03B05DF865
:109FDC0004FB202380F83D30002380F83E300364DE
:109FEC00FFF7A2FFF2E70268136843F00103136066
:109FFC000268136843F4806313600023036328230F
:10A00C0080F83D30E0E700BF0800002089B5F81467
:10A01C0010B5044690F83D20D2B290F83E30DBB239
:10A02C00102B36D0402B34D002F02803282B3DD0F7
:10A03C0023685B6813F4006F07D1602A05D02023D6
:10A04C0084F83D30002384F83E30002323632368DA
:10A05C005A6812F4006F4DD05A6822F400625A60AC
:10A06C00626B92F82130DBB2012B25D0464B536347
:10A07C00606BFFF7C5FB00284ED02268136823F0F5
:10A08C0001031360202384F83D30606B436B9847C9
:10A09C0042E0222AC8D12268136823F400631360BB
:10A0AC0023685B6813F4006FC9D0CEE700232363E9
:10A0BC00282384F83D30CAE7A36B334A5A63A06B5C
:10A0CC00FFF79EFB40B323685A6912F0400F05D08E
:10A0DC001A69636A1A70636A0133636222681368CF
:10A0EC0023F001031360202384F83D30A06B436BF5
:10A0FC00984711E094F83D20D2B2602A1FD05A69DB
:10A10C0012F0400F05D01A69636A1A70636A013342
:10A11C0063622046FFF707FF236C13F00F0F04D088
:10A12C002268536823F4E063536094F83D30DBB24B
:10A13C00226C12F0040F01D0282B18D010BD202255
:10A14C0084F83D20002222645A6912F0400F05D099
:10A15C001A69636A1A70636A01336362226813684E
:10A16C0023F0010313602046FFF7DEFED4E7074B14
:10A17C00E36200232363202284F83D2084F83E30E0
:10A18C002046FEF7B5F9D9E7399F00080000FFFF1C
:10A19C00F0B58FB0044603685868E66A94F83E2020
:10A1AC00D2B294F83D10C9B2102A24D0402A22D041
:10A1BC00226C002A00F0D6835A69002512F0020F97
:10A1CC0000F0EA8310F4007F00F0EC83226C02B103
:10A1DC009D6994F83D2002F02802282A00F0C583DE
:10A1EC0000220C9259690C919B690C930C9B84F87E
:10A1FC003C200FB0F0BD9F695D6915F0010F1DD1BA
:10A20C00B6F52A0FF5D0B6F12A4FF2D015F0080F9B
:10A21C001BD010F4007F00F09881626CD2B21A61EE
:10A22C00636B002B00F085809B6A002B00F0818013
:10A23C002268536843F400635360DAE710F4007F3C
:10A24C001DD115F0080F40F0808115F0020F00F0C1
:10A25C007C8110F4007F00F0788194F83E20D1B21C
:10A26C00E06A256B94F83D20D2B2222A6AD00022F3
:10A27C000A925A690A929B690A930A9BB9E7E26AA5
:10A28C00B2F52A0F1AD0E26AB2F12A4F04BF0822A3
:10A29C00E26294F83E20D2B2402A12D02269B2F582
:10A2AC00804F1BD0226D002A36D1626CC2F3C812CB
:10A2BC0002F0060242F0F0021A619AE70122E26211
:10A2CC00E7E7226D22B9626C02F0FE021A6190E798
:10A2DC00626C42F00102D2B21A618AE794F83D2016
:10A2EC00D2B2212A626C0EBF02F0FE0242F00102D1
:10A2FC00D2B21A61636B3BB19B6A2BB12268536873
:10A30C0043F40063536074E7A36B002B3FF471AF0D
:10A31C009B6A002BF2D16CE7226D012A7FF469AFA6
:10A32C00626CC2F3C81202F0060242F0F1021A612A
:10A33C005FE7A36B002B3FF45CAF9B6A002B7FF4B1
:10A34C0077AF56E7226D0AB9402915D0226D1AB99C
:10A35C002269B2F5404F16D0628D92B212BB0292B6
:10A36C005A6902929A690292029A1A6842F400722D
:10A37C001A60002323653CE700925A6900929B699E
:10A38C000093009B35E7002201925A6901929A6969
:10A39C000192019A1A6842F480721A60236D01339B
:10A3AC00236526E7628D92B2012A1BD0628D92B290
:10A3BC00022A6ED01A6842F480621A6023685A68C6
:10A3CC0012F4006F00F0B480202800F2BA80072845
:10A3DC0000F2A780012840F0AB805A6842F480520A
:10A3EC005A60A5E010F5803F19D008283BD02028F2
:10A3FC0039D0122D35D0102846D89A4AC24012F0C6
:10A40C00010F41D01A6842F480621A600023059350
:10A41C0023685A6905929B690593059BA9E71A68FD
:10A42C0022F480621A6023685A6812F4006F0CD010
:10A43C001A6822F480621A600023039323685A6915
:10A44C0003929B690393039B93E7002204925A693E
:10A45C0004929A690492049A1A6842F400721A607F
:10A46C0087E7012810D01A6822F480621A60002352
:10A47C00069323685A6906929A690692069A1A6894
:10A48C0042F400721A6074E71A6822F480621A604F
:10A49C00BCE7102804D8734AC24012F0010F1CD13B
:10A4AC001A6842F400621A600023079323685A6901
:10A4BC0007929A690792079A1A6822F480621A60C6
:10A4CC0023685A6812F4006F3FF453AF202816D952
:10A4DC0010F5803F7FF44DAF16E01A6842F48062AD
:10A4EC001A600023089322685369089393690893B0
:10A4FC00089B1346526812F4006F3FF43AAF0728DA
:10A50C0007D801287FF435AF5A6842F480525A605C
:10A51C002FE70838544AC24012F0010F3FF429AF1C
:10A52C00F2E70838504AC24012F0010F7FF455AFE1
:10A53C000023099323685A6909929B690993099B23
:10A54C0017E710F5803FF3D147E717F0040F00F041
:10A55C00DA805E6816F4006F7FF44BAE15F0800F56
:10A56C006ED010F4806F6BD015F0040F6CD194F892
:10A57C003D20D2B294F83E10C9B2E56A208D002875
:10A58C0040D1212A06D040297FF433AE222A7FF411
:10A59C0030AE39E0082D04D0202D02D015F5803FC7
:10A5AC0019D15A6822F4E0625A602268136843F4A5
:10A5BC000073136000232363202384F83D3094F848
:10A5CC003E30DBB2402B16D0002384F83E302046C0
:10A5DC00FFF73BFC0DE65A6822F4E0625A60112347
:10A5EC002363002384F83E30202384F83D3020463A
:10A5FC00FFF72BFCFDE5002384F83E302046FFF7E7
:10A60C0028FCF6E5212ABED1628D92B222B95A6895
:10A61C0022F480625A60ECE594F83E20D2B2402AD3
:10A62C000AD0626A12781A61636A01336362638DBD
:10A63C00013B9BB26385DCE52046FFF70BFCD8E5BC
:10A64C0015F0040F3FF4D5AD10F4007F3FF4D1ADFD
:10A65C0021290BD0402A7FF4CCAD2046FFF7FAFB22
:10A66C00C7E500BF1400010001010001E16A94F884
:10A67C003D20D2B2212A7FF4BCAD628D92B252B190
:10A68C00626A12781A61636A01336362638D013BFB
:10A69C009BB26385ADE5082904D0202902D011F5C1
:10A6AC00803F19D15A6822F4E0625A60226813681C
:10A6BC0043F40073136000232363202384F83D309C
:10A6CC0094F83E30DBB2402B16D0002384F83E3099
:10A6DC002046FFF7BAFB8CE55A6822F4E0625A6018
:10A6EC0011232363002384F83E30202384F83D306B
:10A6FC002046FFF7AAFB7CE5002384F83E30204679
:10A70C00FFF7A7FB75E55A6812F4006F7FF471AD83
:10A71C0015F0400F00F08F8010F4806F00F08B80EC
:10A72C0015F0040F40F08B8094F83D20D2B2222A11
:10A73C007FF45FAD628D92B2032A14D91A69636AF1
:10A74C001A70636A01336362638D013B9BB263854C
:10A75C00638D9BB2032B7FF44CAD2268536823F4BA
:10A76C008063536045E5E16A022901D0012A04D9CE
:10A77C005A6822F480625A603BE500220B92854AAB
:10A78C00126846F2A811B2FBF1F202EB82020B92B4
:10A79C000B9A013A0B920B9A42B31A6812F4007F8F
:10A7AC00F6D11A6822F480621A602268536823F486
:10A7BC00E063536023681A69636A1A70636A013331
:10A7CC006362638D013B9BB26385202384F83D302B
:10A7DC0094F83E30DBB2402B25D0002384F83E3079
:10A7EC00122323632046FFF731FB02E5226C42F073
:10A7FC00200222645A6822F4E0625A6023681A69C3
:10A80C00636A1A70636A01336362638D013B9BB2A6
:10A81C006385202384F83D30002384F83E302046A5
:10A82C00FFF781FBE5E4002384F83E3023632046E8
:10A83C00FFF778FBDDE415F0040F3FF4DAAC10F40D
:10A84C00007F3FF4D6ACE16A628D92B2042A12D03A
:10A85C00628D92B2032A1ED0628D92B2022A33D03C
:10A86C001A69636A1A70636A01336362638D013B10
:10A87C009BB26385BDE45A6822F480625A602368F7
:10A88C001A69636A1A70636A01336362638D013BF0
:10A89C009BB26385ADE45A6822F480625A60042945
:10A8AC0006D0022904D02268136823F48063136055
:10A8BC0023681A69636A1A70636A01336362638D71
:10A8CC00013B9BB2638594E401390F293DD8DFE845
:10A8DC0001F008373C373C3C3C3C3C3C3C3C3C3C71
:10A8EC003C081A6822F480621A6023681A69636A49
:10A8FC001A70626A531C6362638D013B9BB2638561
:10A90C0023681B695370636A01336362638D013B77
:10A91C009BB263852268536823F4407353602023F1
:10A92C0084F83D3094F83E30DBB2402B12D000233B
:10A93C0084F83E30122323632046FFF787FA58E44D
:10A94C001A6842F480621A60CFE71A6842F4007207
:10A95C001A60CAE7002384F83E3023632046FFF7D1
:10A96C00E1FA46E49D695A6928E45A6822F4806247
:10A97C005A6085F00401C1F3800115F0800F0CBF03
:10A98C00A289228B002384F83C302046FDF7B4FDCD
:10A99C002FE400BF0800002012F0100F02D010F4BA
:10A9AC00007F39D101F0F701212900F0F48012F079
:10A9BC00400F00F03B8110F4806F00F0378112F0F3
:10A9CC00040F40F0378194F83D20D1B2628D92B2E1
:10A9DC00002A3FF40EAC1A69636A1A70636A013379
:10A9EC006362638D013B9BB26385638D9BB2002BCD
:10A9FC007FF4FFAB2A297FF4FCAB2268536823F465
:10AA0C008063536022232363282384F83D3020463F
:10AA1C00FFF71EFAFFF7EDBB94F83D50EDB25A6804
:10AA2C0022F4E0625A6000230D9323685A690D9258
:10AA3C001A6842F001021A600D9B2268136823F415
:10AA4C008063136023685A6812F4006F38D005F0E5
:10AA5C00F702222A1FD0626B1268526892B262858A
:10AA6C00628D92B21AB1226C42F0040222645A68CE
:10AA7C0022F400625A60606BFEF70EFF01281FD0B3
:10AA8C00636B774A5A63606BFEF7BAFEC0B1606BBA
:10AA9C00436B984714E0A26B1268526892B26285BD
:10AAAC00628D92B21AB1226C42F0040222645A688E
:10AABC0022F400625A60A06BFEF7EEFE012842D130
:10AACC00638D9BB223B323685A6912F0040F09D02B
:10AADC001A69636A1A70636A01336362638D013B9E
:10AAEC009BB2638523685A6912F0400F09D01A692A
:10AAFC00636A1A70636A01336362638D013B9BB2B4
:10AB0C006385638D9BB21BB1236C43F004032364F8
:10AB1C00236C23BB2A2D27D094F83D30DBB2282B95
:10AB2C002BD0236B222B02D0222D7FF462AB00237F
:10AB3C002363202284F83D2084F83E302046FFF722
:10AB4C0087F9FFF756BBA36B454A5A63A06BFEF718
:10AB5C0057FE0028B4D0A06B436B9847B0E7204653
:10AB6C00FFF756FAFFF745BB00232363282384F82D
:10AB7C003D302046FFF76CF9CEE73A4BE3620023F9
:10AB8C002363202284F83D2084F83E302046FDF7D4
:10AB9C00AFFCFFF72EBB12F0800F2ED010F4806F9D
:10ABAC002BD012F0040F2CD194F83D20D1B2628D31
:10ABBC0092B2002A3FF41DAB626A12781A61636A82
:10ABCC0001336362638D013B9BB26385638D9BB2E2
:10ABDC00002B7FF40EAB29297FF40BAB2268536852
:10ABEC0023F48063536021232363282384F83D30AE
:10ABFC002046FFF72CF9FFF7FCBA12F0040F3FF4D4
:10AC0C00F8AA10F4007F3FF4F4AA628D92B2002AE5
:10AC1C003FF4EFAA626A12781A61636A01336362C5
:10AC2C00638D013B9BB26385FFF7E3BA12F0040F0F
:10AC3C003FF4DFAA10F4007F3FF4DBAA628D92B2DE
:10AC4C00002A3FF4D6AA1A69636A1A70636A013340
:10AC5C006362638D013B9BB26385FFF7CABA00BF89
:10AC6C00399F00080000FFFF70B5044603685D695A
:10AC7C005A6890F83E10C9B215F4807F12D012F4C5
:10AC8C00807F0FD06FF4807058612068036843F4A4
:10AC9C000043036015F4007F31D115F4806F39D176
:10ACAC00012309E015F400762BD012F4807016D134
:10ACBC0015F4806340F0AF8015F4006F27D012F4C8
:10ACCC00807F24D043F0080322686FF40061516147
:10ACDC00226C134323642046FFF79AF970BD0026BB
:10ACEC0046F0020623686FF40070586115F4806F0B
:10ACFC0011D115F4006F40F08C803346E8E7012643
:10AD0C00EEE715F48063D7D012F4807303D1002BD7
:10AD1C00E4D0DDE70126638D9BB294F83D20D2B2DE
:10AD2C00206B202912D023686FF480625A6146F0A0
:10AD3C000403102901D0402904D121680A6842F487
:10AD4C0000720A6015F4006FC2D0BBE72BB902F099
:10AD5C00F703212B0AD0282A06D023686FF48062CF
:10AD6C005A6146F00403EDE72128F6D194F83D3002
:10AD7C00DBB2E26A082A01D0202A01D1282B0AD0A2
:10AD8C00212B23D023686FF480625A6115F4006F75
:10AD9C0043D0334696E7224BE3622268536823F490
:10ADAC00E063536023686FF480625A612268136811
:10ADBC0023F48063136000232363202284F83D2056
:10ADCC0084F83E302046FDF793FBDFE7144BE3623B
:10ADDC0021232363202384F83D30002384F83E3064
:10ADEC002268536823F4E063536023686FF4806235
:10ADFC005A612268136823F48063136023685A69CC
:10AE0C0012F0800F1CBF00221A612046FFF71FF8BA
:10AE1C00BCE7334653E7034679E7334677E700BF91
:10AE2C000000FFFF014B024A9A60704700ED00E002
:10AE3C0000800008FFF7F6FF0B480C490C4A002372
:10AE4C0002E0D458C4500433C4188C42F9D3094AD4
:10AE5C00094C002301E013600432A242FBD300F042
:10AE6C000FF8FDF7E7FB7047000000200C000020F6
:10AE7C0020AF00081000002088010020FEE7000031
:10AE8C0070B500260C4D0D4C641BA410A64209D1C4
:10AE9C0000F01AF800260A4D0A4C641BA410A642B6
:10AEAC0005D170BD55F8043B98470136EEE755F8CF
:10AEBC00043B98470136F2E718AF000818AF0008BA
:10AECC0018AF00081CAF0008F8B500BFF8BC08BCF0
:10AEDC009E467047F8B500BFF8BC08BC9E4670474C
:10AEEC000102000002030405060708090A0B0C0DF9
:10AEFC000E0F1010000000000102030400000000FF
:0CAF0C0000000000010203040607080911
:04AF1800318100087B
:04AF1C000D8100089B
:0CAF20000A010100100000000024F400F1
:040000050800AE4100
:00000001FF